:060000000200DE023201E5
:03000B0002314D72
:03001300022CC0FC
:03001B00022CC7ED
:03002300022CCEDE
:03002B00022CD5CF
:03003300022CDCC0
:03003B0002306729
:0300430002324442
:03004B00022CE3A1
:03005300022CEA92
:03005B00022CF183
:03006300023E5703
:03006B00023FEA67
:100070000000E2FBEAF2802C0000E0FBEAF08024C2
:10008000E6B50202EBF62200E2B50202EBF2220034
:10009000E0B50202EBF02230F6E0A88220F5D3EAC8
:1000A000C6F582228B822230F6E6A88220F5D9801E
:0100B000CF80
:03013A000200B10F
:0300B10002017BCE
:10013D00122CB9122CB5122EA31235C01230BA12D0
:10014D0035BD1212F3121E7B123653AF8290000092
:10015D00EFF0EF600312024D1268771223BAD2AF9F
:10016D0022121EA1E582700312368F0236A11201F2
:10017D003D12367812016E900000E06003120329E3
:10018D00125A621222EA75B1001236CA123DA91234
:10019D00178B126B1512037F121F0212237380E649
:1001AD00120389AF82BF010690037CE07004C22068
:1001BD008002D220A220E433F58222AF83023D4C8F
:1001CD00AF83023D6DC016858116AF82900005EF9D
:1001DD00F0900006E51624FCF8E6F008E6A3F09092
:1001ED000005123D88D01622AE82AF83900001E04B
:1001FD00FCA3E0FDEEB50405EFB50501229000016D
:10020D00EEF0EFA3F0C006C0077582011201D21502
:10021D0081158122AE82AF83900003E0FCA3E0FD47
:10022D00EEB50405EFB5050122900003EEF0EFA346
:10023D00F0C006C0077582021201D2158115812208
:10024D00123644E58270012290020DE4F090020E08
:10025D00F090020FF0900210F0900211F0C200C267
:10026D0001900213E4F0900212F0900208F0A3F056
:10027D0090020AF0A3F0A3F0900214F0A3F0900204
:10028D0016F0022FCF90020DE4F090020EF09002C6
:10029D000FF0900210F0900211F0C200C201900216
:1002AD0013E4F0900212F0022FDFAE82AF83C0078D
:1002BD00C006120390E582D006D0077001227D00A2
:1002CD007408C0E08E828F838DF0122FE915812284
:1002DD00AE82AF83C007C006120390E582D006D070
:1002ED00077001227D007416C0E08E828F838DF021
:1002FD00123027158122AE82AF83C007C0061203CC
:10030D0090E582D006D0077001227D007403C0E015
:10031D008E828F838DF01230271581227E007F0013
:10032D008E048F05C3EC94A0ED940F503575B1007C
:10033D00900216E0600D900214E0F5F0A3E045F098
:10034D00700B22C3EC94F4ED940140012290000156
:10035D00C007C006122C7AD006D0070EBE00C10F02
:10036D0080BE2230010B300008200305D2034391DB
:10037D000222300206125AA2022CAB22900210E089
:10038D00F5822290020DE0FFBF0203D38001C392DC
:10039D0020E433F58222C016E581F5162408F58197
:1003AD00D310AF01C3C0D0AF160F7E007D408F823A
:1003BD008E838DF01212CBD0D092AFAF160F8F016E
:1003CD008706EF04F987058E04BC0002802DBC0161
:1003DD00030204BABE020302051ABE210302056F11
:1003ED00BE8003020478BE81030204D8BE820302DC
:1003FD000551BEA1030205B90205E9BD0102801434
:10040D00BD03028021BD0502802EBD0702803BBDCC
:10041D000950803C8F037C007E408B828C838EF054
:10042D001207140205EF8F037C007E408B828C83B4
:10043D008EF01207570205EF8F037C007E408B82F2
:10044D008C838EF01206CD0205EF12094A0205EFDC
:10045D008F037C007E408B828C838EF012087D0290
:10046D0005EF4397084397020205EFBD0002800A8E
:10047D00BD06028017BD082C80248F037C007E40B2
:10048D008B828C838EF01209510205EF8F037C0055
:10049D007E408B828C838EF0120AAD0205EF120F17
:1004AD00550205EF4397084397020205EFBD0B1266
:1004BD008F037C007E408B828C838EF01208E402C9
:1004CD0005EF4397084397020205EFBD0002800A2E
:1004DD00BD06028017BD0A2C80248F037C007E4050
:1004ED008B828C838EF01209900205EF8F037C00B6
:1004FD007E408B828C838EF0120AAD0205EF120FB7
:10050D006D0205EF4397084397020205EFBD010207
:10051D008005BD032680128F037C007E408B828C6C
:10052D00838EF012079A0205EF8F037C007E408BBD
:10053D00828C838EF012081A0205EF4397084397B9
:10054D00020205EFBD00128F037C007E408B828C72
:10055D00838EF01209EC0205EF43970843970202D0
:10056D0005EFBD0902800ABD0A028016BD0B35805C
:10057D00228F037C007E408B828C838EF0120F893C
:10058D0080608F037C007E408B828C838EF01210F6
:10059D0033804F8F037C007E408B828C838EF012D4
:1005AD00106A803E4397084397028036BD01028052
:1005BD000ABD0202800ABD031B800A120F8280222F
:1005CD00121058801D7E007D408F828E838DF0121B
:1005DD0010C4800E43970843970280064397084343
:1005ED009702851681D01622AF92AE93EF7003025B
:1005FD00068AEF30E3275392F7900214E0FCA3E054
:10060D00FD900214E0F5F0A3E045F0600D1CBCFF79
:10061D00011D900214ECF0EDA3F0C201225392EFF4
:10062D0053929FEF30E70653927F02024DEF30E475
:10063D00145392EF90021474F4F07401A3F090022D
:10064D0016F00203A3EF30E2065392FBD20322EF22
:10065D0030E1105392FD90020DE0FDBD0261D2011B
:10066D00C20322EF30E0585392FE43912000000068
:10067D000000005391DF12024D43970122EE603FBF
:10068D00EE30E6075393BF439A0122EE30E5045353
:10069D0093DF22EE30E40A5393EF121105439701D5
:1006AD0022EE30E2065393FB023066EE30E1065344
:1006BD0093FD023065EE30E0065393FE0211502299
:1006CD00AD82AE83AFF0900213E4F074022DFDE421
:1006DD003EFE8D828E838FF0129527FBA3129527F8
:1006ED004B600890020D7401F0800590020DE4F04E
:1006FD008D828E838FF012952790020EF0539BF012
:10070D0043970243970422AD82AE83AFF09002135C
:10071D00E4F08D028E038F048A828B838CF0129508
:10072D0027540F701E74022DFDE43EFE8D828E83C4
:10073D008FF0129527FDA3129527FEBD0105BE0072
:10074D0002C200539BF043970422AD82AE83AFF0FB
:10075D00900213E4F08D028E038F048A828B838CBA
:10076D00F0129527540F701E74022DFDE43EFE8D80
:10077D00828E838FF0129527FDA3129527FEBD0162
:10078D0005BE0002D200539BF043970422AE82AD0A
:10079D0083AFF0900213E4F08E028D038F048A82F2
:1007AD008B838CF0129527FA53020FBA02587402FC
:1007BD002EFAE43DFB8F048A828B838CF0129527F1
:1007CD00FAA31295274A703E74042EFEE43DFD8E69
:1007DD00828D838FF0129527FEA3129527FF4E7001
:1007ED00085397F75397FD801DBE8108BF00055331
:1007FD0099F78012BE8208BF0005539AF780074310
:10080D00970843970222539BF043970422AD82AE83
:10081D0083AFF0900213E4F08D028E038F048A8271
:10082D008B838CF0129527FA53020FBA023474049D
:10083D002DFDE43EFE8D828E838FF0129527FDA354
:10084D00129527FEBD8108BE0005439908801ABD8B
:10085D008208BE0005439A08800F4397084397020C
:10086D00800743970843970222539BF04397042236
:10087D00AE82AD83AFF0900213E4F090020EE06013
:10088D004974022EFEE43DFD8E828D838FF012950C
:10089D0027FEA3129527FF4E600A8E048F05BC011B
:1008AD0021BD001E90020FEEF0EE600890020D7457
:1008BD0002F0800690020D7401F0539BF0439704F3
:1008CD00800E43970843970280064397084397028B
:1008DD00539BF043970422AE82AD83AFF090021389
:1008ED00E4F074022EFAE43DFB8F048A828B838C34
:1008FD00F0129527FAA31295274A703A74042EFE2A
:10090D00E43DFD8E828D838FF0129527FEA3129507
:10091D0027FF4E700A539BF043970443970222BE64
:10092D00010DBF000A539BF04397044397022243E6
:10093D00970843970222439708439702224397084B
:10094D0043970222AD82AE83AFF09002137402F092
:10095D008D828E838FF0129527540F701F300008F3
:10096D009011087402F08005901108E4F0901109BF
:10097D00E4F0539BF0439B024397042243970843B3
:10098D00970222AE82AD83AFF08E028D038F048A63
:10099D00828B838CF0129527FA53020FBA013974AA
:1009AD00042EFEE43DFD8E828D838FF0129527FE81
:1009BD00A3129527FF4E6006BE0116BF00139011BE
:1009CD0008E4F0901109F0539BF0439B0243970408
:1009DD00224397084397022243970843970222AD7B
:1009ED0082AE83AFF08D028E038F048A828B838C4F
:1009FD00F0129527FA53020FBA02028003020AA6DB
:100A0D0074042DFDE43EFE8D828E838FF0129527AA
:100A1D00FDA3129527FEBD801BBE0018AC97530495
:100A2D0002E4A2E713CC13CC901108ECF09011095D
:100A3D00E4F0805BBD8127BE0024AC99530408E42B
:100A4D0023CCC423541F6CCC541FCC6CCC30E4028B
:100A5D0044E0901108ECF0901109E4F08031BD8272
:100A6D0027BE0024AE9A530608E423CEC423541F98
:100A7D006ECE541FCE6ECE30E40244E0901108EEDF
:100A8D00F0901109E4F08007439708439702225331
:100A9D009BF0439B024397042243970843970222FE
:100AAD00C016858116C082C083C0F0E581240BF588
:100ABD0081A81608740226FAE40836FB0886048A13
:100ACD00828B838CF0129527FAA3129527FC8A0747
:100ADD00BC01547C007A0090999EE493FDA3E493AD
:100AED00FE8D828E83E493FF7B00C3EC9FEA9B50C7
:100AFD001EEC2408FBEA3400FFEC2DF582EA3EF5EE
:100B0D0083E4938B828F83F00CBC00CB0A80C87D6D
:100B1D00087E007F00900008E0FBE5162404F8A68F
:100B2D0003087600020F04BC02028003020CC99078
:100B3D0099A2E493FBC3EF9B4003020CC99099A3C8
:100B4D00E493FAA3E493FBEF75F002A42AF582EB8C
:100B5D0035F0F583E493FFA3E493FE74092FFDE4D0
:100B6D003EFCE516240DF876000876008F828E8304
:100B7D00E5162406F8E493F6E5162406F886027BBE
:100B8D0000E516240DF8C3E69A08E69B503EE516DF
:100B9D00240DF8E5162407F9E62408F708E63400D5
:100BAD0009F7E516240DF8E62FF58208E63EF583E4
:100BBD00E493FBE5162407F88682088683EBF0E5BF
:100BCD0016240DF806B60002080680A0E5162406C8
:100BDD00F8E5162409F9E62408F7E4340009F7E5E9
:100BED00162407F8A60508A604E516240DF87600C8
:100BFD00087600E5162407F88682088683E493FFBD
:100C0D00A3E493FE8F828E83E493FB7A00E5162492
:100C1D000DF8C3E69B08E69A5034E5162409F8E56D
:100C2D0016240DF9E726FD09E70836FCE516240D17
:100C3D00F8E62FF58208E63EF583E4938D828C83EA
:100C4D00F0E516240DF806B60002080680A58F8281
:100C5D008E83E493FBE5162409F8EB26F6E40836BB
:100C6D00F6E5162407F8740226F6E40836F6E516BE
:100C7D002407F88682088683E493FAA3E4934A60F6
:100C8D0003020BF690000AE0FAA3E04A7017E5168E
:100C9D002409F8E6C39408FA08E69400FB90000ACC
:100CAD00EAF0EBA3F07D087E007F0090000AE516C8
:100CBD002404F8E0F6A3E008F6020F04E4BC0301F7
:100CCD0004FB604CEF7049FDFC909994E493FA7F1E
:100CDD0000C3ED9AEC9F5020ED2408FFEC3400FE8C
:100CED00ED2494F582EC3499F583E4938F828E8311
:100CFD00F00DBD00D40C80D17D087E007F009000EA
:100D0D0008E0FAE5162404F8A602087600020F049E
:100D1D00EB7003020DEEC0047E00EF24FFFDEE34F8
:100D2D00FFFB9099A5E493FA7C00C3ED9AEB6480E8
:100D3D008CF063F08095F0D0044003020DEE909995
:100D4D00A6E493FDA3E493FCEF24FFFAEE34FFFB3E
:100D5D00EA2AFAEB33FBEA2DF582EB3CF583E493BB
:100D6D00FEA3E493FD9000087402F090000904F0D6
:100D7D00E516240BF874012409F6E4340008F68E08
:100D8D00828D83E493FF60418F030EBE00010DE55C
:100D9D0016240BF88682088683EBF0E516240BF8F3
:100DAD00740126FAE40836FB8A828B83E4F0E5169B
:100DBD00240BF874012AF6E43B08F6900008E0FBDA
:100DCD000B0B900008EBF080B67D087E007F009045
:100DDD000008E0FBE5162404F8A603087600020FD0
:100DED0004BC224CA81608740426FFE40836FE083D
:100DFD0086058F828E838DF0129527FA70137D7D77
:100E0D007E987F80E5162404F87644087600020F5C
:100E1D0004BA01137DC17E987F80E5162404F8760F
:100E2D0076087600020F04439708439702020F4F8E
:100E3D00BC21028003020EFCA81608740426FAE4F5
:100E4D000836FB0886048A828B838CF0129527FC6A
:100E5D007048FDFC909952E493FB7A00C3ED9BEC36
:100E6D009A5020ED2408FFEC3400FEED2452F5825B
:100E7D00EC3499F583E4938F828E83F00DBD00D40D
:100E8D000C80D17D087E007F00900008E0FBE51608
:100E9D002404F8A603087600805DBC014A7F007E1D
:100EAD000090996BE493FA7C00C3EF9AEE9C50206E
:100EBD00EF2408FBEE3400FCEF246BF582EE349941
:100ECD00F583E4938B828C83F00FBF00D40E80D119
:100EDD007D087E007F00900008E0FCE5162404F8F4
:100EED00A604087600801043970843970280534369
:100EFD009708439702804BA81608740626FBE40852
:100F0D0036FA0886048B828A838CF0129527FBA310
:100F1D00129527FCE5162404F8C3EB96EC089640D1
:100F2D000AE5162404F88603088604C003C0048D60
:100F3D00828E838FF01211791581158112119F43C5
:100F4D009704851681D016229002137402F0900238
:100F5D000FE0901108F0539BF0439B01439704223F
:100F6D009002137402F0901108E4F0539BF0439B30
:100F7D00014397042243970843970222C0168581A7
:100F8D0016C082C083C0F0A81608740226FBE408C0
:100F9D0036FA0886048B828A838CF0129527FBA380
:100FAD00129527FABA02028005BA036E804DA81673
:100FBD0008740426FDE40836FE0886078D828E83AC
:100FCD008FF0129527FDA31295274D7053A8160883
:100FDD00740626FDE40836FE0886078D828E838F03
:100FED00F0129527FDA3129527FEBD0133BE0030EB
:100FFD009002137404F04397018025900213E4F0DE
:10100D00BB05099002137405F0439701900213E09C
:10101D00700E439708439702800643970843970243
:10102D00851681D01622AD82AE83AFF074022DFDF0
:10103D00E43EFE8D828E838FF0129527A3129527A5
:10104D00900212F0539BF043970422900212E0900D
:10105D001108F0539BF0439B0143970422AD82AEE0
:10106D0083AFF074042DFBE43EFA8F048B828A83E8
:10107D008CF0129527FBA3129527FC4B7018740268
:10108D002DF8E43EF98F02888289838AF012952724
:10109D00900210F0801ABB0117BC001474022DFDD4
:1010AD00E43EFE8D828E838FF0129527900211F013
:1010BD00539BF043970422AE82AD83AFF074042EA0
:1010CD00FEE43DFD8E828D838FF0129527FEA312D7
:1010DD009527FF4E700A900210E0901108F0800ED7
:1010ED00BE010BBF0008900211E0901108F0539B58
:1010FD00F0439B0143970422900213E0FFBF0415B8
:10110D00900213E4F0901100E0F582121E95539BAE
:10111D00F043970422BF051F900213E4F0901100D5
:10112D00E0FFBF050B901101E0FFBF7503D2022256
:10113D00539BF043970422900213E4F0539BF0432A
:10114D00970422900213E0FFBF010A12119F4397EB
:10115D000443970122BF0207439701439708224397
:10116D00970843970190020EE0F59622C0168581EF
:10117D0016AFF0AE83E58290020AF0EEA3F0EFA376
:10118D00F0E51624FCF8900208E6F008E6A3F0D08E
:10119D001622900208E0FEA3E0FF4E700D900213A0
:1011AD007402F0539BF0859B9B228E048F05C374B4
:1011BD00089CE49D50589002137401F090020AE0CF
:1011CD00F9A3E0FAA3E0FB7408C0E089828A838B5F
:1011DD00F012127E1581900208E0FAA3E0FBEA24DA
:1011ED00F8FAEB34FFFB900208EAF0EBA3F0900263
:1011FD000AE0F9A3E0FAA3E0FB90020A740829F0D3
:10120D00E43AA3F0EBA3F0539BF0439B0822BC08F8
:10121D0031BD002E9002137401F090020AE0FBA381
:10122D00E0FCA3E0FD7408C0E08B828C838DF0128E
:10123D00127E1581900208E4F0A3F0539BF0439BBE
:10124D0008229002137402F090020AE0FCA3E0FD64
:10125D00A3E0FFC0068C828D838FF012127E158164
:10126D00539BF0900208E0FEA3E0AD9BEE4DF59B85
:10127D0022C016858116C082C083C0F0E51624FDFC
:10128D00F8E624F740327C00E51624FDF8C3EC9611
:10129D005026EC2408FAE43411FBA81608EC26FDC0
:1012AD00E40836FE0886078D828E838FF01295270F
:1012BD008A828B83F00C80D0851681D01622AD8268
:1012CD00AE83AFF07C00BC0800501AEC2DF9E43E63
:1012DD00FA8F038C82758311E089828A838BF012D9
:0612ED00920A0C80E122D0
:10987D0005010906A101050719E029E715002501D4
:10988D00750195088102750895018101050719007B
:10989D0029FF150026FF007508950681000508199A
:1098AD000129051500250175019505910275039591
:1098BD00019101C005010980A1018501198129834B
:1098CD001500250175019503810295058101C005DE
:1098DD000C0901A101850219002AFF02150026FFBE
:1098ED0002751095018100C00600FF0901A10185D7
:1098FD000519012902150026FF0075089505B1020D
:10990D00C005010906A1018506050719E029E7151E
:10991D0000250175019508810205071900299F157C
:10992D00002501750195A08102C0120110010000F2
:10993D0000088A250C010000010203010904000042
:10994D000103010100092111010001224400070555
:10995D008103100001090401000103000000092129
:10996D001101000122760007058203400001090262
:10997D000000020100A0FA499952995B9962996B16
:10998D0099749900007B9904030904A899AC99BBBB
:10999D009937990000019299039899534D4B0041C5
:1099AD00554C41204636352028534D4B290030303B
:0399BD0030310046
:1012F300900238E4F0900239F0900237F0FFBF100B
:1013030000501BEF2417F582E43402F583E4F0EF79
:101313002427F582E43402F583E4F00F80E022E52C
:1013230082900239F022C016858116AE82AF839077
:101333000238E0FDE070068E828F838045ED75F004
:10134300A0A42482FC749A35F0FDE51624FDF8E68A
:10135300C42354E02CFCE43DFDE51624FCF8E6260A
:101363002CF582E43DF583E493FCA3E493FD8C0226
:101373008D03BA0105BB000280048C068D078E82A3
:101383008F83D01622C016858116AE82AF838E045A
:101393008F05C3EC94E0ED9400404574E79CE49D15
:1013A300403EE51624FDF8E660198E0374075BF5ED
:1013B300F005F07401800225E0D5F0FBF582121DE3
:1013C3003D80178E0374075BF5F005F0740180020E
:1013D30025E0D5F0FBF582121D4612186302148036
:1013E300C3EC9404ED9400403474A49CE49D402D1C
:1013F300E51624FDF8E660118E03C00390033A75E9
:10140300F000121C531581800F8E03C00390033A22
:1014130075F000121C9C15811218638060C3EC9454
:10142300A5ED9400402974A79CE49D4022E5162471
:10143300FDF8E6600D8E038B82121D91AA82AB83A9
:1014430080047A007B008A828B831201F5802EC38D
:10145300EC94A8ED9400402574C29CE49D401EE5E5
:101463001624FDF8E6600B8E82121DB2AE82AF83A6
:1014730080047E007F008E828F83120221D0162289
:10148300C016858116AF82900239E075F0A0A424BE
:1014930082FD749A35F0FEEFC42354E02DFDE43E43
:1014A300FEE51624FDF8E626FC2DF582E43EF583E1
:1014B300E493FDA3E493FE8D028E03C3EA9420EB31
:1014C30094524069743F9A74529B4061E51624FC20
:1014D300F8E66023C006C0057401C0E0C005C0067D
:1014E300E51624FDF8E6C0E08F821229CCE58124BD
:1014F300FCF581D005D006E51624FCF8E660118DD5
:1015030003900238741F5BF075820112379D801AB5
:1015130090033A75F000121CE5900238E4F01226AD
:10152300DD75820012379D1218630215CCE516246F
:10153300FCF8E6603DC007C004E51624FDF8E6C0EC
:10154300E0C0078D828E83121329AD82AE8315818D
:101553001581D004D007EF75F020A4243AFA740261
:1015630035F0FBEC2AF582E43BF583EDF0EEA3F0D6
:10157300801AEF75F020A4243AFA740235F0FBECDC
:101583002AF582E43BF583E0FDA3E0FEC006C00537
:10159300E51624FCF8E6C0E0C005C006E51624FD08
:1015A300F8E6C0E08F821229CCAF82E58124FCF5F6
:1015B30081D005D006EF7011E51624FCF8E6C0E0F3
:1015C3008D828E831215CF1581D01622C016858188
:1015D30016AE82AF83C007C006E51624FDF8E6C049
:1015E300E08E828F831239A8AD821581D006D00791
:1015F300ED70028031C007C006E51624FDF8E6C091
:10160300E08E828F831266F5AD821581D006D007F6
:10161300ED70028011E51624FDF8E6C0E08E828F9E
:10162300831213881581D01622C016E581F516247E
:1016330006F581E582FF2417F582E43402F583E0A1
:10164300FEE51624FDF8EE66541FFDE5162405F8A5
:10165300A605ED7014EF242AFBE43403FD8B828D81
:1016630083E070058E8202170AE5162406F87600D9
:101673007B01EF75F005A424DAFA740235F0FCA8B7
:101683001608A60208A6047D00BD05005066E516EF
:101693002405F8EB566049C007E5162403F8ED2A44
:1016A300F6E43C08F6E5162403F88682088683E010
:1016B300FF0FE5162403F88682088683EFF0BF0444
:1016C30000D0074011EB6206E5162403F886820872
:1016D3008683E4F08018E5162406F8EB46F6800EC0
:1016E300A81608ED26F582E40836F583E4F00DEB41
:1016F3002BFB8095EF242AF582E43403F583E5166A
:101703002406F8E6F08E82851681D01622125A76C8
:1017130012354F1297F312346C7F00BF1000505BE9
:101723008F82C00712347890000A122C6A12353463
:10173300AE8290000AC006122C6A123534AD82D0F4
:1017430006D007EEB50528EF2417FCE43402FDEEBE
:10175300F4FEC007C005C004C0068F8212162CAE6B
:10176300821581D004D005D0078C828D83EEF08F53
:1017730082C0071234D6D0070F80A0129526125AC2
:101783007C9002377401F022C016E581F51624100F
:10179300F581122BA9900237E07005F58202185DDE
:1017A300900237E4F0AF160FFEBE10005012EE2F7A
:1017B300F9EE2417F582E43402F583E0F70E80E9AD
:1017C300C2207E00BE10004003021857EE2FF98797
:1017D30005EE2427F582E43402F583E0FCED620490
:1017E300ECFB606CD220C007C006C005C003C02458
:1017F30012234AD024D003D005D006D0077C017A27
:1018030000BA0500503EEC5B6034C007EC5D24FF7A
:10181300E433FFC007C006C005C004C003C002C054
:1018230024C007C0068A8212148315811581D0242F
:10183300D002D003D004D005D006D007D0070AECDD
:101843002CFC80BDEE2427F582E43402F583EDF011
:101853000E0217C7A220E433F582851681D0162223
:101863001201ADE58260030218D5021870900C478F
:10187300E0FF90033AF0900C48E0420790033AEF00
:10188300F07408C0E0E4C0E07442C0E07403C0E058
:10189300E4C0E090033AF5F01292CBAE82AF83E559
:1018A3008124FBF581EE4F60287F00BF0800501BA9
:1018B300EF2442FDE43403FEEF243AF582E43403DB
:1018C300F583E08D828E83F00F80E090033A02016E
:1018D300C82290034A7406F0900C47E0FF90034B34
:1018E300F0900C48E0420790034BEFF07416C0E011
:1018F300E4C0E07460C0E07403C0E0E4C0E09003BF
:101903004AF5F01292CBAE82AF83E58124FBF581D9
:10191300EE4F60287F00BF1600501BEF2460FDE4EC
:101923003403FEEF244AF582E43403F583E08D8229
:101933008E83F00F80E090034A0201CD22AD82AE88
:1019430083AFF074022DFDE43EFE7C06C007C006A3
:10195300C005C0041201ADE582D004D005D006D085
:101963000760087D4C7E037F007C147B008C021C87
:10197300EA60158D828E838FF0129527FAA3AD82CC
:10198300AE83EA60E80B80E58B8222AD82AE83AF43
:10199300F0C007C006C0051201ADE582D005D00630
:1019A300D007603B7C00BC14005012EC244CFAE4DA
:1019B3003403FB8A828B83E070030C80E9ECC4035D
:1019C30054F8FBEC244CF582E43403F583E0F58210
:1019D300C003121D65AC82D003EC42038B822274D8
:1019E300022DFDE43EFE8D828E838FF0129527F546
:1019F3008222C01685811605810581AD82AE83AF33
:101A0300F0E51624FDF8E67005F582021ABAC00760
:101A1300C006C0051201ADE582D005D006D007602F
:101A230051E51624FDF8E6C423541FFCBC140050F2
:101A33003CEC244CFFE43403FEE51624FDF886E079
:101A43005407F5F005F07D017A008006ED2DFDEADF
:101A530033FAD5F0F78F828E83E0FB7C00ED5203DF
:101A6300EA5204EB4C24FFE433F582804A7582008A
:101A7300804574022DFDE43EFEA816087600A816E4
:101A830008B60600502EA81608E62DFAE43EFB8F92
:101A9300048A828B838CF0129527FAE51624FDF8CD
:101AA300E6B50205758201800EA81608A91609E697
:101AB30004F780CA758200851681D01622C0168568
:101AC3008116C082C083C0F07CFF7B00C3EB6480BF
:101AD3009486503AC004A81608740226FAE408361D
:101AE300FC088607EB2AFAE43CFC8A828C838FF09D
:101AF300129527FFE51624FDF8E6B50704D0048008
:101B03000DD004BCFF05EF70028B040B80BEBB0637
:101B13002ABCFF028025A81608740226FDE40836B5
:101B2300FE088607EC2DFCE43EFB8F028C828B8340
:101B33008AF0E51624FDF8E612920A851681D0167E
:101B430022C016858116058105810581AD82AE838C
:101B5300AFF074022DFDE43EFE7C00BC060050375E
:101B6300A81608EC2DF6E43E08F608A607A8160802
:101B730086820886830886F0129527FBE51624FDE6
:101B8300F8E6B5030FA8160886820886830886F050
:101B9300E412920A0C80C4851681D01622C01685E1
:101BA3008116AD82AE83AFF0E51624FDF8E6C423BB
:101BB300541FFCBC1400503B74022DFDE43EFEECAC
:101BC3002DFCE43EFB8F02E51624FDF886E0540766
:101BD300F5F005F07401800225E0D5F0FBFF8C825F
:101BE3008B838AF012952742078C828B838AF0EFCE
:101BF30012920AD01622C016858116AD82AE83AF2B
:101C0300F0E51624FDF8E6C423541FFCBC14005071
:101C13003C74022DFDE43EFEEC2DFCE43EFB8F0202
:101C2300E51624FDF886E05407F5F005F07401800D
:101C33000225E0D5F0FBF4FF8C828B838AF01295AA
:101C43002752078C828B838AF0EF12920AD01622D6
:101C5300C016858116AD82AE83AFF0C007C006C043
:101C6300051201ADE582D005D006D0076015E51653
:101C730024FDF8E6C0E090034A75F000121BA0159E
:101C8300818013E51624FDF8E6C0E08D828E838FF4
:101C9300F0121AC01581D01622C016858116AD82A6
:101CA300AE83AFF0C007C006C0051201ADE582D018
:101CB30005D006D0076015E51624FDF8E6C0E090D0
:101CC300034A75F000121BF915818013E51624FDF4
:101CD300F8E6C0E08D828E838FF0121B441581D00D
:101CE3001622AD82AE83AFF0C007C006C005120155
:101CF300ADE582D005D006D00760187414C0E0E4C7
:101D0300C0E0C0E090034CF5F01294CC158115812E
:101D130015812274022DFDE43EFE7406C0E0E4C08A
:101D2300E0C0E08D828E838FF01294CC15811581F3
:101D3300158122900C47E0F58222AF82900C47E098
:101D43004FF022E582F4FF900C47E05FF022E5823A
:101D5300900C47F022900C47E4F022900C48E0F5F9
:101D63008222AF827E00EFC4540FFD60048D077E94
:101D730004EF0303543FFD60088D078E0574022DA5
:101D8300FEEFC31360058E07EF04FE8E8222AF823F
:101D9300BFA502800ABFA6028009BFA70E800890D4
:101DA300000122900002229000042290000022AF42
:101DB30082BFA8005003021E77EF243D5003021E8A
:101DC30077EF2458FF240A83F582EF241F83F583DA
:101DD300E4730B0F13171B272F332B373B3F4B4F4B
:101DE30053575B5F6B1F23636743476F731E1E1E4F
:101DF3001E1E1E1E1E1E1E1E1E1E1E1E1E1E1E1E00
:101E03001E1E1E1E1E1E1E1E9000E2229000E922B0
:101E13009000EA229000B5229000B6229000B322EF
:101E23009000B4229000B7229000CC229000CD22E3
:101E33009001832290018A229001922290019422A0
:101E430090019F229001CB22900221229002232213
:101E53009002242290022522900226229002272219
:101E630090006F229000702290022A2290029F22FB
:081E73009002A0229000002261
:02A9D70000007E
:101E7B00900376E4F0900377F0900378F090037979
:101E8B00F090037AF090037BF022AF82900376EF11
:101E9B00F02222021E9D7435C0E090037D1232BAEF
:101EAB00AF821581EF600475820122740BC0E09044
:101EBB00037D1232BAAF821581EF7003F582227F58
:101ECB000BBF3500500FEF247DF582E43403F5830F
:101EDB00E4F00F80EC758201229003B2E4F0125A09
:101EEB00827435C0E090037D1233601581025A88ED
:101EFB009003B27401F0229003B2E06003021EE47F
:101F0B0022C016858116AF82BF00028038BF010246
:101F1B008005BF02308017E51624FCF886821292EA
:101F2B00C3AF82E51624FBF8E62FF5828036E51663
:101F3B0024FDF886821292C7AF82E51624FBF8E6E1
:101F4B002FF582801FE51624FCF8E6C0E0E5162489
:101F5B00FDF88682129872AF821581E51624FBF884
:101F6B00E62FF582D01622C016E581F5162406F56C
:101F7B0081AF82BF55005064E51624FBF8A9160902
:101F8B00E6F708E609F708E609F78F03EB75F003A8
:101F9B00A4D394FFF4FBA8160886820886830886D0
:101FAB00F0EB12920AA81608740126FAE40836FB25
:101FBB000886068A828B838EF0E412920AA8160892
:101FCB00740226FCE40836FD088606EF75F003A4C0
:101FDB008C828D838EF012920A0220ADBFAA005024
:101FEB00668F06EE24ABFFE51624FBF8A91609E66F
:101FFB00F708E609F708E609F7A8160886820886A7
:10200B00830886F0E412920AA816080426FAE4085C
:10201B0036FD088606EF75F003A48A828D838EF059
:10202B0012920AA81608740226FCE40836FD0886EC
:10203B00068F03EB75F003A4D394FFF48C828D838E
:10204B008EF012920A805BEF2456FFE51624FBF804
:10205B008604088605088606EF75F003A48C828D2E
:10206B00838EF012920AE5162404F874012CF6E420
:10207B003D08F608A606EF75F003A4D394FFF4FF12
:10208B00E5162404F886820886830886F0EF129200
:10209B000A74022CFCE43DFD8C828D838EF0E412DD
:1020AB00920A851681D01622C016E581F5162406F4
:1020BB00F581AF82BF0360E51624F7F88602088628
:1020CB0003088607E5162404F874012AF6E43B0896
:1020DB00F608A60774022AFCE43BFD8F068C828D62
:1020EB00838EF0E51624FAF8E612920AE51624041C
:1020FB00F886820886830886F0E51624FAF9E7123B
:10210B00920A8A828B838FF0E51624FAF8E61292F4
:10211B000A758201022260BF04004006758200022C
:10212B002260E51624FBF8E6C0E0E51624FCF8E691
:10213B00C0E0E51624FDF8E6C0E08F82121F0CAF5D
:10214B0082158115811581E51624F7F8E6C0E008A4
:10215B00E6C0E008E6C0E08F82121F721581158180
:10216B001581E51624F7F886050886060886078D7F
:10217B00828E838FF0129527FC7B00E51624FAF8EC
:10218B00A91609E6F7097700C007C006C005A8160F
:10219B0008E6C0E008E6C0E08C828B83129227AC85
:1021AB008315811581D005D006D0078C038D828EC7
:1021BB00838FF0EB12920AE5162404F874012DF6C6
:1021CB00E43E08F608A607E5162404F8868208867E
:1021DB00830886F0129527FC7B00C007C006C0055C
:1021EB00A81608E6C0E008E6C0E08C828B8312924A
:1021FB0027AC8315811581D005D006D0078C03E55C
:10220B00162404F886820886830886F0EB12920A5D
:10221B0074022DFDE43EFE8D828E838FF012952786
:10222B00FC7B00C007C006C005A81608E6C0E00886
:10223B00E6C0E08C828B83129227AC8315811581CB
:10224B00D005D006D0078C038D828E838FF0EB12D6
:10225B00920A758201851681D01622C016858116C9
:10226B00AF82BF031DE51624F8F88604088605081F
:10227B0086068C828D838EF074FF12920A75820112
:10228B00805ABF040040057582008050E51624FB80
:10229B00F8E6C0E0E51624FCF8E6C0E0E51624FD00
:1022AB00F8E6C0E08F82121F0CAF821581158115E5
:1022BB0081E51624F8F88604088605088606BF8093
:1022CB00005005EF2FFB800774FFC39F25E0FB8CAD
:1022DB00828D838EF0EB12920A758201D0162290BA
:1022EB0003B3E4F0A3F09003B5F09003B6F022E54E
:1022FB00827001229003B5E060109003B5E4F0907A
:10230B0003B3F0A3F09003B6F0229003B3E0FEA367
:10231B00E0FFC3EE9408EF945250239003B3E024F4
:10232B0001FEA3E03400FF9003B3EEF0EFA3F0C384
:10233B00EE9408EF945240069003B67401F022908D
:10234B0003B57401F022AF82BF01028005BF0214F6
:10235B00800B9003B6E024FFE433F58222A201E464
:10236B0033F5822275820022123600AF82C007122B
:10237B002351E582D0077007BF01012202234A9047
:10238B0003B6E4F0BF0203048001E4B40100E433BC
:10239B00FFC00712244A125A76123604D0078F82D6
:1023AB0012312512360A125A7C12244D02234A90FE
:1023BB0003B77401F09003B8E4F00231D1D310AF3E
:1023CB0001C3C0D09003B9E0FEA3E0FFD0D092AF21
:1023DB008E828F83227582001231E61217109003C2
:1023EB00B9E0FEA3E0FF9003B974012EF0E43FA324
:1023FB00F0227582011231E6129226E4C0E09003BE
:10240B0076F5F0125D13AF821581C007129225D0BD
:10241B00078F820222FA9003B7E0600C9003B7E4B7
:10242B00F09003B8F00223E01223FD9003B8E024F0
:10243B0001FFF0BF010040069003B77401F02202C8
:10244B0031FB0231FE900386E0B40100B39220E42D
:10245B0033F58222E5829003EEF022122450E582BE
:10246B0060069003EEE07004C2208002D220A2200E
:10247B00E433F58222AF82C007122450AE82D0071C
:10248B00EEB5070122EF60047E0180027E0090030F
:10249B0086EEF0C007121EFBD0078F8202375590D5
:1024AB0003EDE0FFE06008E4BF020104FF800712C8
:1024BB002450AE828E07EF24FFE433F58222AF82E5
:1024CB00C0071224AAAE82D007EEB50701229003F3
:1024DB00EBE0600FEF60047E0280027E019003ED63
:1024EB00EEF0229003EDE4F08F820224801224AAF6
:1024FB00E582B401009220E433F5820224C97F0007
:10250B009003EBE0FEC3EF9E5022EF75F004A42482
:10251B00BBFD740335F0FE74022DFDE43EFE8D828F
:10252B008E83E06004758201220F80D475820022B5
:10253B00121D36AF825307DD9003EBE0FEE0606BBC
:10254B00EE14FDC2D575F004ED30E704B2D5F404FA
:10255B00A430D50AF42401C5F0F43400C5F024BB33
:10256B00FC740335F0FD74022CFCE43DFD8C828D74
:10257B0083E060371EC2D575F004EE30E704B2D5A8
:10258B00F404A430D50AF42401C5F0F43400C5F0EA
:10259B0024BBFD740335F0FE74032DFDE43EFE8D6C
:1025AB00828E83E0600B43070280069003ECE042CF
:1025BB00078F822212253B021D51AF829003EBE065
:1025CB00FE1E8E05ED20E731C2D575F004ED30E728
:1025DB0004B2D5F404A430D50AF42401C5F0F434C4
:1025EB0000C5F024BBF582740335F0F583E0B50725
:1025FB00038E82221D8D0680CB7582FF22AF828FC8
:10260B0006EE04FD9003EBE0FCC3ED9C50580EC2AC
:10261B00D575F004EE30E704B2D5F404A430D50A36
:10262B00F42401C5F0F43400C5F024BBFD7403356C
:10263B00F0FE7B00EF75F004A424BBF9740335F0B6
:10264B00F87A00C0077404C0E0E4C0E0C005C0061F
:10265B00C003898288838AF0129439E58124FBF5C3
:10266B0081D0070F8099EC149003EBF022C01685F4
:10267B008116AF827E007D00BD14005030ED75F0E9
:10268B0004A424C0FB749935F0FC8B828C83E493F7
:10269B00B507158B828C83A3E493FCE51624FDF818
:1026AB00E6B504048E8280080D8D0680CB7582FF03
:1026BB00D016229003EBE070189003EDE0FFE06082
:1026CB0010E4BF020104FF9003EDE4F08F820224BB
:1026DB0080229003EBE4F01225BF0226BEC01685C4
:1026EB00811605810581AE82AF838E048F05BCE117
:1026FB0005BD00028006BCE548BD00458E035303B3
:10270B00078BF005F07401800225E0D5F0FBFBE5AB
:10271B001624FDF8E660089003ECE04BF08009EB23
:10272B00F4FB9003ECE05BF0122509E58270067573
:10273B0082010229071225BF121863758200022934
:10274B0007C3EC9404ED9400400774A49CE49D50E3
:10275B0006758201022907E51624FDF8E6700302CF
:10276B00288A9003EBE0FFBF0C0040067582010244
:10277B0029079003ECE0B401009220B3E433FFC0CF
:10278B0007C006122466E582D006D0076015C00785
:10279B00C006C0078E82122678AD821581D006D076
:1027AB000780027DFFC0079003EBE0FC04F0EC75A3
:1027BB00F004A4ABF024BBFCEB3403FB8C828B83C7
:1027CB00EEF074022CFAE43BFFBDFF03D38001C390
:1027DB009220B392218A828F83A221E433F0A81630
:1027EB000874012CF6E43B08F6D00720201CC00728
:1027FB00ED75F004A424C0FA749935F0FF8A828F2A
:10280B0083A3A3E493FAD00780028E02A81608864E
:10281B0082088683EAF074032CFCE43BFB20201D2A
:10282B00C004ED75F004A424C0FA749935F0FC8A49
:10283B00828C83A3A3A3E493FED00480028F06EEC5
:10284B0024FFE4338C828B83F0BDFF10122509E546
:10285B008260031225BF7582010229071225BFA8CA
:10286B0016088682088683E0FFC00790033A75F04E
:10287B0000121C5315811218637582000229078EF2
:10288B00821225C5E582FF30E705758201806DC296
:10289B00D575F004EF30E704B2D5F404A430D50AB3
:1028AB00F42401C5F0F43400C5F024BBFD740335EA
:1028BB00F0FE8D828E83A3A3E0FC8D828E83A3E03A
:1028CB00FE8F82C006C004122608D004D006EC701E
:1028DB0012122509E58260031225BF1226BE7582EE
:1028EB00018019C0061225BF90033A75F000121C27
:1028FB009C15811218631226BE758200851681D035
:02290B00162292
:1099C00035012E011F012F0023012E002401230148
:1099D0002501340126012501270126012D018701DA
:1099E0002E002D012E0133012F0030002F013001F8
:1099F000300032003001320131008700310189012D
:109A0000330134003400240134011F0135002F01DB
:10290D00AF838F0653061F7FE0EE30E3047FE38035
:10291D000EEE30E2047FE28006EE30E1027FE1EE62
:10292D0030E4068F0674042EFF7E008F828E832284
:10293D00E58275F007A424EFFE740335F0FF8E8257
:10294D008F837402F08E828F83A3A3A3E0FEA3E096
:10295D00FF8E828F8312290DAE82AF837401C0E08A
:10296D008E828F831215CF158122C016858116AFE9
:10297D00827E007D00BD0200503FC006ED75F00760
:10298D00A424EFFB740335F0FC8B028C068A828E37
:10299D0083E0D006601E8B828C83A3E0B507158B78
:1029AD00828C83A3A3E0FCE51624FDF8E6B50404B0
:1029BD008E8280080D8D0680BC758202D01622C0D5
:1029CD0016858116AF82C007E51624FDF8E6C0E036
:1029DD008F82122977AE821581D007E51624FAF879
:1029ED00E67003022ADE7D00BD0200502EED75F06B
:1029FD0007A424EFF582740335F0F583E0FCBC01E8
:102A0D0017EDB5060280118D82C007C006C00512F4
:102A1D00293DD005D006D0070D80CDE51624FBF855
:102A2D00860408860574E02D5009C374FF9C743F1D
:102A3D009D5006758200022BA67D00BD0200506DD3
:102A4D00ED75F007A424EFFB740335F0FC8B068CB9
:102A5D00028E828A83E070528E828A837401F08B9B
:102A6D00828C83A3EFF08B828C83A3A3E51624FDC8
:102A7D00F8E6F08B828C83A3A3A3E51624FBF8E67E
:102A8D00F008E6A3F074052BFFE43CFEC007C0067A
:102A9D001223C8AA82AC83D006D0078F828E83EA18
:102AAD00F0ECA3F0758201022BA60D808EE51624A5
:102ABD00FBF8868208868312290DAD82AF837401DF
:102ACD00C0E08D828F831215CF1581758201022B87
:102ADD00A6BE0241E51624FBF8860508860774E0BC
:102AED002F502CC374FF9D743F9F4023E51624FB8C
:102AFD00F8868208868312290DAD82AF83E4C0E08B
:102B0D008D828F831215CF1581758201022BA675CB
:102B1D008200022BA6EE75F007A424EFFE74033598
:102B2D00F0FF8E048F058C828D83E0FBBB01368E0A
:102B3D00828F83A3A3A3E0FB7A00C005C004C0036A
:102B4D00C0027401C0E08B828A831215CF1581D02B
:102B5D0002D003E4C0E08B828A831215CF1581D099
:102B6D0004D005802B8E828F83A3A3A3E0FEA3E068
:102B7D00FF8E828F83C005C00412290DAE82AF83F4
:102B8D00E4C0E08E828F831215CF1581D004D0055D
:102B9D008C828D83E4F0758201D016221223C8AE8B
:102BAD0082AF837D00BD02005048ED75F007A4246F
:102BBD00EFFB740335F0FC8B828C83E0FABA012FA6
:102BCD008B828C83A3A3A3A3A3E0FBA3E0FCEEC3A2
:102BDD009BFBEF9CFCC3EB941DEC940140118D828B
:102BED00C007C006C00512293DD005D006D0070D7F
:102BFD0080B322C2AF53A9FD90FF80E47F12F0A3F2
:102C0D00DFFCF5E2F5E3F5E47904E9440060237AAD
:102C1D00017BD77CA97D477E0C8C838B82E493A3AB
:102C2D00AB82AC838E838D82F0A3AD82AE83D9E966
:102C3D00DAE775820022AE82AF83BE0005BF0003C6
:102C4D00801A0F801300000000000000000000003B
:102C5D000000000000000000DEEBDFE922AE82AFD5
:102C6D0083EE4F7001228E828F83022C43AE82AF92
:102C7D00838E048F051EBEFF011FEC4D601F7D006E
:102C8D00BD040050EC75B1009000FAC007C006C03D
:102C9D0005122C6AD005D006D0070D80E322C2AFF5
:102CAD0075F0A5745A02FF00758F01229003FDE5A2
:032CBD00B1F02251
:030137007508FF49
:102CC00075080253A8FB3275080353A8F73275083C
:102CD0000453A8EF3275080553A8DF327508065370
:102CE000A8BF3275080953A9FB3275080A53A9F722
:102CF0003275080B53A9EF32C016858116AF82D307
:102D000010AF01C3C0D0EF60027401FF8FA77F0036
:102D1000E51624F9F8C3EF96502E8F06E51624FC2D
:102D2000F886040886057B00EE2CFCEB3DFDE516DD
:102D300024FAF8EF26FBE40836FE8C828D83E493B8
:102D40008B828E83F00F80C875A700D0D092AFD051
:102D50001622C016858116AF82D220D310AF01C3D0
:102D6000C0D0EF60047F0180027F008FA77F00E565
:102D70001624F9F8C3EF9650388F06E51624FCF8B0
:102D800086040886057B00EE2CFCEB3DFD8C828DD5
:102D900083E493FEE51624FAF8EF26F582E408367C
:102DA000F583E0FDEEB505028004C22080030F80AC
:102DB000BE75A700D0D092AFA220E433F582D01622
:102DC00022C016858116AF8275B100D310AF01C342
:102DD000C0D08FA7E51624FCF80886F7E51624FC7A
:102DE000F886FBE51624FAF886FCE51624FBF8863F
:102DF000F275F30575F40A75F50975F6060000001D
:102E0000000075F70075A700D0D092AFD01622C091
:102E1000168581160581E58260027401FFA81608F7
:102E2000A6077E00E51624F9F8C3EE965043E51692
:102E300024FAF8EE26F582E40836F583E0FD8E04E8
:102E4000E51624FCF886020886037F00EC2AFAEFD8
:102E50003BFBC006C005746EC0E0C002C003A816EC
:102E6000088682122DC1E58124FCF581D0060E80F2
:102E7000B31581D01622C016858116E582600274D2
:102E800001FFE4C0E074E6C0E0E51624FCF8E6C00B
:102E9000E008E6C0E08F82122DC1E58124FCF581B7
:102EA000D0162275B20875BC027E007F00C3EE9476
:102EB00020EF944E5011E5BC030354017009F5B1A5
:102EC0000EBE00E90F80E643BC0143B204227F003E
:102ED000BFC8005004000F80F722D310AF01C3C059
:102EE000D043B20843BC0275B100122ECE75BC03AC
:102EF00075B20C75B100D0D092AF22C01685811684
:102F0000C082C083C0F0E51624FDF8E624EF40320D
:102F10007C00E51624FDF8C3EC965026EC2420FA3C
:102F2000E43411FBA81608EC26FDE40836FE0886FA
:102F3000078D828E838FF01295278A828B83F00C07
:102F400080D0851681D01622C016858116C082C019
:102F500083C0F0E51624FDF8E624BF40327C00E58E
:102F60001624FDF8C3EC965026EC2480FAE43411C4
:102F7000FBA81608EC26FDE40836FE0886078D82BD
:102F80008E838FF01295278A828B83F00C80D085F8
:102F90001681D016227F00BFFF005015E59930E260
:102FA0001075B100900028C007122C6AD0070F805E
:102FB000E6227F00BFFF005015E59A30E21075B1A0
:102FC00000900028C007122C6AD0070F80E62275F7
:102FD000960075945F7595117591C043A90122758E
:102FE000960053913B53A9FE22C016858116AD82EF
:102FF000AE83AFF0C007C006C005122F95D005D034
:1030000006D007E51624FDF8E6C0E08D828E838F9A
:10301000F0122EFB1581539CE0E51624FDF8E642E4
:103020009C439904D01622C016858116AD82AE83CA
:10303000AFF0C007C006C005122FB2D005D006D031
:1030400007E51624FDF8E6C0E08D828E838FF0122E
:103050002F481581539D80E51624FDF8E6429D43D7
:103060009A04D016222222C024C0E0C0F0C082C040
:1030700083C007C006C005C004C003C002C001C0B1
:1030800000C0D075D000AF86AEA7D204C007C0067E
:103090001205F5D006D0078EA78F86D0D0D000D0ED
:1030A00001D002D003D004D005D006D007D083D001
:1030B00082D0F0D0E0D0240200B422E58270044334
:1030C00091012202029253B2FB53BCFE53BCFD534A
:1030D000B2F722AF8243948553927AEF700475A9B8
:1030E000012275A900538FFE2200758E5543870279
:1030F00000000000000022AF825392FD5391FE9029
:1031000003FEE060084391029003FEE4F0EF7009D3
:1031100075945F43A901C20122438F019001F4120B
:103120002C6A02024DAF82C0071230BB1230C6D0EB
:10313000078F82C0071230D375B1009003FEE4F010
:103140001230E9122EDAD0078F820230F7C024C085
:10315000E0C0F0C082C083C007C006C005C004C084
:1031600003C002C001C000C0D075D0001231A990C8
:1031700003FE7401F0D0D0D000D001D002D003D033
:1031800004D005D006D007D083D082D0F0D0E0D0D4
:10319000240200B49003FEE0B401009220B3E433B3
:1031A000FF9003FEE4F08F822275E800221231A91D
:1031B00075BAF375B640D2A922C2A90231A9AE826E
:1031C000AF83C2CA8F058DCB8ECA8DCD8ECCD2CAAD
:1031D00022C2CA75C80075C90090FCDF1231BEC298
:1031E000CFD2A8D2CA22E58270067E377FFF800444
:1031F0007EDF7FFC8E828F830231BEC2A822D2A8DE
:1032000022C024C0E0C0F0C082C083C007C006C096
:1032100005C004C003C002C001C000C0D075D0000A
:10322000C2CF122421D0D0D000D001D002D003D000
:1032300004D005D006D007D083D082D0F0D0E0D023
:10324000240200B432C016858116AE82AF837D00A1
:103250007C00E51624FDF8C3EC96500EEC2EF582AA
:10326000E43FF583E02DFD0C80E88D82D01622AF7F
:1032700082C0077403C0E074FFC0E07403C0E0E4E0
:10328000C0E074ECC0E0758200122CF8E58124FBEC
:10329000F581D0079003FFE0FEBE5A11900400E0D4
:1032A000FEBEA509900401E0B507028004C220809B
:1032B00002D220A220E433F58222C016858116AE08
:1032C00082AF83E51624FDF88682C007C00612325D
:1032D0006FE582D006D0077005F58202335DC00726
:1032E000C006E51624FDF8E6C0E0C006C00774037A
:1032F000C0E074ECC0E0758200122CF8E58124FB7C
:10330000F581E51624FDF886057C0074032DFD7417
:10331000EC3CFC7401C0E074FFC0E07403C0E0C08A
:1033200005C004758200122CF8E58124FBF581D0DC
:1033300006D0079003FFE0FDC005E51624FDF8E682
:10334000C0E08E828F83123245AF821581D005EDA9
:10335000B50703D38001C39220E433F582D016224F
:10336000C016858116AE82AF83E51624FDF88682ED
:10337000C007C00612326FE582D006D0076030C0A9
:1033800007C006E51624FDF8E6C0E0C006C00774D5
:1033900003C0E074ECC0E0758200122D52AD82E5EE
:1033A0008124FBF581D006D007ED6003023469C0AB
:1033B00007C006E4C0E074ECC0E0758200122E760F
:1033C000158115819003FF745AF0900400F4F09079
:1033D0000401E51624FDF8E6F07403C0E074FFC0B4
:1033E000E07403C0E0E4C0E074ECC0E07582001259
:1033F0002E0FE58124FBF581D006D007C007C0065B
:10340000E51624FDF8E6C0E0C006C0077403C0E07E
:1034100074ECC0E0758200122E0FE58124FBF5816B
:10342000D006D007E51624FDF8E6C0E08E828F8333
:10343000123245AF8215819003FFEFF0E51624FDAF
:10344000F886077E0074032FFF74EC3EFE7401C003
:10345000E074FFC0E07403C0E0C007C006758200DE
:10346000122E0FE58124FBF581D0162243B02D43A7
:103470008887E5C075C0FF22E582FF24F050012255
:10348000EF2F90348673801E801F80208021802241
:103490008023802480258026802780288029802AF8
:1034A000802B802C802DC2C022C2C122C2C222C267
:1034B000C322C2C422C2C522C2C622C2C722C28837
:1034C00022C28922C28A22C28F22C2B022C2B22262
:1034D000C2B322C2B522E582FF24F0500122EF2FB1
:1034E0009034E473801E801F8020802180228023FE
:1034F000802480258026802780288029802A802B90
:10350000802C802DD2C022D2C122D2C222D2C3228C
:10351000D2C422D2C522D2C622D2C722D28822D277
:103520008922D28A22D28F22D2B022D2B222D2B320
:1035300022D2B522E5F8C313FF530707E5885418D4
:1035400042074307E0C00712413ED0078F82225353
:1035500090C05398C053A0C0227580047590007528
:10356000980075A00075B06D75888775C0FF75F8F7
:103570001075E10475E23F75E33F75E43F75E56F53
:1035800075E68775E7FF75D17075E9F875EA3F75DF
:10359000EB3F75EC3F75ED6F75EE9F75EFFF75D9DD
:1035A000DF758C0575A500758C4575A600758C8535
:1035B00075BB00758CC5758D00758C002202355960
:1035C0001235597582001234787F007E00BE1000DB
:1035D000501D75B1009001F4C007C006122C6A128C
:1035E0003534E582D006D00720E0010F0E80DE756D
:1035F0008200C0071234D6D007BF1003022CAB22C2
:1036000075820022758210025A55758210025A5C2A
:10361000900238E0F5820266DC900387E0B4010096
:10362000B39220E433F582C0241266D2AF82D02454
:103630008F82C024121322D024B220A220E433F5BA
:103640008202245F125198E582B401009220E43393
:10365000F58222121EA1E58270069003857401F0A6
:10366000900385E0F5821251A6125198E582B401CB
:10367000009220E433F58222123619123F73124071
:1036800058124422125198E582700353A9BF229028
:103690000387E4F090038504F0900386E4F0028E43
:1036A00030900387E024FE5005900387E4F09003F8
:1036B00086E024FE5005900386E4F0128EAF1236A9
:1036C00019900385E0F5820251A6A2B4B392FE12CE
:1036D0003F83AE82AF83900402E0FCA3E0FDEEC323
:1036E0009CFCEF9DFDC3EC940AED940050012290E8
:1036F0000402EEF0EFA3F0125325125198E582B4C4
:103700000100B39220A2FFB39221E433FFA2B4E4FC
:1037100033FEA220E433C0E0C0078E821246AC150F
:1037200081158102567190033A75F000121CE51262
:103730001D581218630226DD7582001224C99003F9
:1037400087E0600B900387E4F012372612361912D7
:103750008E30021EFB02699B900404E0F58222C0B9
:1037600016858116AE82AF839004077401F0E516CA
:1037700024FDF8E6C0E08E828F831215CF1581906C
:103780000407E4F0D01622900405E0600F900405D1
:10379000E4F0C0E09000E512375F158122E5826019
:1037A00008900406E4F0023787900404E060069075
:1037B00004067401F022C016E581F5162404F58193
:1037C000AF82E51624FDF8E67003023913900387F3
:1037D000E0B40100B39220C007C024123758AE8273
:1037E000D024D007A220E433B50631EF75F002A44F
:1037F000240CFD740435F0FE8F037C00743A2BFB1F
:10380000E43CFC8D828E83EBF0ECA3F07401C0E00D
:103810008B828C8312375F15810239A2302018EF1A
:1038200075F002A42410F582749A35F0F583E493C0
:10383000FDA3E493FE8016EF75F002A42428F58220
:10384000749A35F0F583E493FDA3E493FEE5162422
:1038500003F8A60508A606EF75F002A4240CFB7475
:103860000435F0FC8B828C83E5162403F8E6F0081F
:10387000E6A3F0E5162403F88605088606BD0106D2
:10388000BEF003ED8001E4FF7006BD025DBEF05A9C
:1038900090040AE0FA04F0EA702CC007121D36AA60
:1038A00082D007EA03035401B40100922090040B74
:1038B000E433F0302010C0077401C0E09000E21241
:1038C000375F1581D007EF60047A2B80027A29A830
:1038D0001608A6020876007401C0E0A816088682C1
:1038E00008868312375F15818026E5162403F8E6E3
:1038F0000846601C8D0274804EFE8B828C83EAF039
:10390000EEA3F0E5162403F88682088683120221CE
:103910000239A2EF75F002A4240CFE740435F0FF06
:103920008E828F83E0FCA3E0FD8E828F83E4F0A380
:10393000F08C068D07BE0106BFF003048001E4FB96
:103940007006BE0241BFF03EEB60047F2B80027F19
:1039500029E4FEC0E08F828E8312375F15819004C8
:103960000AE0FFE0603CEF1490040AF0E07033904E
:10397000040BE0602D90040BE4F0C0E09000E21234
:10398000375F1581801CED30E7089000001202219E
:103990008010EC4D600CE4C0E08C828D8312375FA8
:1039A0001581851681D01622C016858116AE82AF8C
:1039B00083E51624FDF8E66027C007C006123F9B8A
:1039C000125198E582D006D0076015C007C00612D4
:1039D0004684E582D006D0076006758200023D4924
:1039E0008E048F05BC2A47BD0044E51624FDF8E689
:1039F0006023C007C006C005C004123610E582D09F
:103A000004D005D006D007600C9004247401F07532
:103A10008200023D49E51624FDF8E6701190042469
:103A2000E0600B900424E4F0758200023D499004AC
:103A300007E06003023BABBCE534BD0031E5162472
:103A4000FDF88603900404EBF0900406E4F0EB60CC
:103A5000099004057401F0023AF1900405E0600851
:103A6000900405E4F0023AF1758200023D49BC473A
:103A700020BD7E1DE51624FDF88603900404EBF0BE
:103A8000EB7008900406E4F0123787758200023D5F
:103A900049E51624FDF8E66058900406E06052C33C
:103AA000EC9404ED9400404974A49CE49D40429041
:103AB0000406E4F0900404E06037C007C006C005C7
:103AC000C004123610E582D004D005D006D00770AD
:103AD000209004057401F0C007C006C005C004C0F2
:103AE000E09000E512375F1581D004D005D006D0F4
:103AF00007E4BC3504BD000104FB6078E51624FD35
:103B0000F8E66070C007C006C005C004C0031236E6
:103B100010E582D003D004D005D006D0076055C090
:103B200007C006C005C004C003123758E582D003A1
:103B3000D004D005D006D007603A9004087401F094
:103B4000121D36E582035401B4010092209004094D
:103B5000E433F030200C7401C0E09000E112375FD4
:103B600015817401C0E090003512375F15817582B0
:103B700000023D49EB6034E51624FDF8E6702C9018
:103B80000408E06026900408E4F0C0E090003512DC
:103B9000375F1581900409E0600BE4C0E09000E11C
:103BA00012375F1581758200023D49BC1950BD0076
:103BB0004DE51624FDF8E6602CC007C006C005C020
:103BC00004123610E582D004D005D006D007601567
:103BD0009004257401F0900424E0600312373875D6
:103BE0008200023D49E51624FDF8E6701190042597
:103BF000E0600B900425E4F0758200023D49C007A7
:103C0000C006C005C004E51624FDF8E6C0E08E82BB
:103C10008F83129021AB821581D004D005D006D0BD
:103C200007EB7005F582023D49C007C006C005C01C
:103C300004E51624FDF8E6C0E08E828F831226E8A4
:103C4000AB821581D004D005D006D007EB7005F506
:103C500082023D49C3EE9440EF947E5003023D46FC
:103C6000C374549E747E9F5003023D46EC24C0FBF7
:103C7000240A83F582EB241983F583E473A70E0EDF
:103C8000D2E7E7E746B8B8B8B8B8B8B8B8B8B8B87F
:103C9000B8FF3C3D3D3C3C3C3C3D3C3C3C3C3C3C22
:103CA0003C3C3C3C3C3C3CE51624FDF8E660031201
:103CB00024F8758200023D498E03EB24B8FBE5161B
:103CC00024FDF8E6C0E08B821237B61581758200BC
:103CD0008077E51624FDF8E6C0E07582001253A552
:103CE0001581758200806274BD2EFEE51624FDF8F4
:103CF000E6C0E08E821253A51581758200804AE5E8
:103D00001624FDF886821269A2758200803BE516B2
:103D100024FDF8E6602B900387E0FFE4BC4204BD7D
:103D20007E0104FE60027401FDEFB505028012EE13
:103D300060027401900387F0123726123619121EA2
:103D4000FB7582008003758201D01622AE82AF839C
:103D5000C007C006125198E582D006D00770078EC2
:103D6000828F830202B78E828F83024E33AE82AF80
:103D700083C007C006125198E582D006D0077007AD
:103D80008E828F830202DD22AE82AF83C007C0061F
:103D9000125198E582D006D00770078E828F830279
:103DA00003038E828F83024ED612519812509F12B7
:103DB000543A125198E5827003200104C220800217
:103DC000D220A220E433F582125AA8125198E5823B
:103DD000600122C2207F00BF1000502CEF2417F595
:103DE00082E43402F583E0FEEF2426F582E4340415
:103DF000F583E0F45E6002D220EF2426F582E434FD
:103E000004F583EEF00F80CF200106900436E4F035
:103E100022900436E0701A9004367401F0C0241227
:103E200023C8E5828583F0D024900437F0E5F0A321
:103E3000F03020221223C8AE82AF83900437E0FC1A
:103E4000A3E0FDEEC39CFEEF9DFFC3EE9408EF944C
:073E50000040030203702291
:109A100070006F009F02A00200000000B600CD00A1
:109A2000B500E200EA00E90070006F0001F002F00A
:109A300023028A01B600CD00B500E200EA00E90089
:103E5700C0E0C0F0C082C083C007C006C0D075D024
:103E67000053DADF900439E0FEA3E0FF90043974D1
:103E7700012EF0E43FA3F0E50904F50910040280E0
:103E87000990043FE4F0A3F0802390043FE0FEA3F1
:103E9700E0FFBEFF05BFFF02801390043FE0FEA3D3
:103EA700E0FF90043F74012EF0E43FA3F090043B41
:103EB700E02401FEA3E03400FF90043BEEF0EFA303
:103EC700F0C3EE94E9EF9403402A90043BE4F0A397
:103ED700F090043DE0FEA3E0FFBEFF05BFFF0280B8
:103EE7001390043DE0FEA3E0FF90043D74012EF023
:103EF700E43FA3F0E50F6012E50F14F50F700B20F8
:103F0700050853E1FBD28285091030B750E50A60F6
:103F17004CD310AF01C3C0D074FE250C4038E50B5D
:103F27002486F582E43404F583E50AF0E50C04F50C
:103F37000CE50B04FF8F0BBF0303750B00E50B7537
:103F4700F002A42440F582749A35F0F583E493F5E2
:103F57000DA3E493F50E750A00D0D092AFD0D0D060
:103F670006D007D083D082D0F0D0E03275DA03755F
:103F7700DE0B75DDB875DAC343A92022D310AF0174
:103F8700C3C0D0900439E0FEA3E0FFD0D092AF8E3B
:103F9700828F8322D310AF01C3C0D090043DE4F0D9
:103FA700A3F090043BF0A3F090043FF0A3F0D0D02F
:103FB70092AF22D310AF01C3C0D090043FE0FEA35D
:103FC700E0FFD0D092AF8E828F8322D310AF01C390
:103FD700C0D090043DE0FEA3E0FFD0D092AF8E8228
:103FE7008F8322C0E0C082C083C007C0D075D000D5
:103FF70010D802801B74E9250A4040E50A250DF513
:1040070082E4350EF583E5AAF0E50A04F50A802B6C
:1040170010D9028026C3E5119512400CC205850907
:104027001053E1FBD2828013E51104F511E5112449
:104037008AF582E43404F583E0F5AAE5D854E06014
:104047000353D81FD206D0D0D007D083D082D0E078
:104057003253A9BF75AD0075AE0075AF0075D800B6
:1040670075D85075ADFF75AEFB75AF0CC2D9C2D808
:1040770043874043B54043B940C205AF091F1F8F6F
:1040870010750A00750B00750C00900489E4F07533
:104097000D41750E0443A9402253A9BF53D8BF222F
:1040A700C28243E104C282221240A7750F02123F67
:1040B70083E5828583F09004AAF0E5F0A3F022C09F
:1040C700E0C007E5826016FF000000000000000066
:1040D7000000000000000000000000DFEBD007D068
:1040E700E022E509C39510FFBF0200B39220E43335
:1040F700F582227F00BF28005016C0071240E9E56D
:1041070082D007700BF5B17582641240C60F80E547
:1041170022AF82BF01028013BF0202800ABF0302DF
:10412700800DBF090E800475823C2275821E2275A0
:1041370082162275820A2230B750E50A604CD310E6
:10414700AF01C3C0D074FE250C4038E50B2486F5BB
:1041570082E43404F583E50AF0E50C04F50CE50B7D
:1041670004FF8F0BBF0303750B00E50B75F002A46B
:104177002440F582749A35F0F583E493F50DA3E4B2
:1041870093F50E750A00D0D092AF2220B70122D343
:1041970010AF01C3C0D030B745E50A604174FE25B2
:1041A7000C4038E50B2486F582E43404F583E50AF0
:1041B700F0E50C04F50CE50B04FF8F0BBF0303754B
:1041C7000B00E50B75F002A42440F582749A35F0D4
:1041D700F583E493F50DA3E493F50E750A00D0D0AB
:1041E70092AF22C016858116AF827E557D008F045F
:1041F700EC14FBC3ED9B5013ED248AF582E43404E1
:10420700F583E0FBEEC39BFE0D80E3EC14FF3395D3
:10421700E0FDEF248AF582ED3404F583EEF0E51630
:1042270024FDF8E66007C004124192D004D205C00D
:10423700041240A7D004E51624FDF8E66003750ACA
:10424700001C8C1275110090048BE0F58212411846
:104257001240C690048AE0F5AAD01622E5A92323C6
:104267005401600D20050A30B7071240E9E5827056
:1042770004C2208002D220A220E433F58222AF823A
:10428700C0077420C0E0E4C0E0C0E090048AF5F005
:104297001294CC158115811581D00790048A740179
:1042A700F090048BEFF022C016858116AF82C0070D
:1042B700124263E582D0077004F58280288F82124C
:1042C700428590048CE51624FDF8E6F090048DE510
:1042D7001624FCF8E6F07401C0E07582061241EA84
:1042E7001581758201D01622C016858116AF827D91
:1042F700007E00C007C006C005E51624FCF8E6C02E
:10430700E0E51624FDF8E6C0E08F821242AEAC82EB
:1043170015811581D005D006D007EC7044E5162429
:10432700FAF88603088604C007C006C005C003C0A4
:104337000490000A129227AB82AC8315811581D0B5
:1043470005D006D007C3ED9BEE9C40057582008023
:104357001375B1007582641240C60DBD00950E80BD
:1043670092758201D01622AF829004ACEFF0D2078B
:1043770022300725E5A930E62020051D1240E9E592
:10438700826016C2079004ACE0F582124285E4C051
:10439700E07582061241EA1581227E007F00300512
:1043A700178E048F05C3EC9460ED94EA500A75B13B
:1043B700000EBE00E90F80E622C016858116AF8287
:1043C700C0071243A11240FA758209124285D0072D
:1043D70090048CEFF090048D740FF07F00BF0F00F6
:1043E70050248F06EE2404248AFEE43404FDE516E7
:1043F70024FCF8EF26F582E40836F583E4938E82F1
:104407008D83F00F80D77401C0E07582201241EAD6
:104417001581900020122C7AD016227446C0E074C1
:104427009AC0E07582001243C0158115817455C08A
:10443700E0749AC0E07582011243C01581158102AC
:1044470043A1C20CC20D22C016858116AF82300C63
:104457000B9004B3E06005EF70028011D20C90045A
:10446700B3EFF0E51624FDF89004B4E6F0D0162279
:10447700C2089004B07406F09004B774FFF02230BD
:104487000C31124263E582602A9004B4E0C0E090E8
:1044970004B3E0C0E07582011242AE15811581C2F6
:1044A7000C123F83E5828583F09004B5F0E5F0A315
:1044B700F0D20D22A20AE433F582229004AEE0F591
:1044C70082229004ADE0F58222A208E433F582222D
:1044D700A20BE433FFC20B8F8222A209E433F582D9
:1044E700229004AFE0F58222C20A22900C49E0FE36
:1044F700A3E0FFC3EE94CBEF940250047582002231
:10450700EE2435FEEF34FDFF7D007C00C006C007BA
:10451700C005C00490000AE4F5F01295B1AC82AD75
:1045270083AEF0FFE58124FCF5817416C0E0E4C09A
:10453700E0C0E0C0E08C828D838EF0EF1293AFACC9
:1045470082AD83E58124FCF5818C068D07C3EE944B
:1045570064EF9400922040047F6480028C078F826E
:10456700221244F2AF829004B7E0FEBEFF07900428
:10457700B7EFF0D20E200F030246119004B9E4F012
:104587009004B7E0FEC39F504EEFC39EFD9004B862
:10459700E02401F08D0475F00AEC84909A6493FC92
:1045A7009004B8E0C39C40449004B8E4F09004B78A
:1045B700EE04F0BD140040059004B7EFF09004B787
:1045C700E0FDBD640E3010047D6380027D649004BD
:1045D700B7EDF0D20E80159004B8E4F0EEC39FFE5D
:1045E700BE140040079004B7EFF0D20E301001223E
:1045F7009004B7E0FEBE5F00500122EE249C5001FC
:10460700229004B77464F0D20E229004B8E4F090BC
:1046170004B7E0FEC3EF9E40169004B9E4F0EFC381
:104627009EFDBD1E0040419004B7EFF0D20E22EE72
:10463700C39FFD9004B9E02401F08D0475F00AECE6
:1046470084909A6493FC9004B9E0C39C401A900448
:10465700B9E4F0EE6006EE149004B7F0BD1E00401A
:10466700059004B7EFF0D20E229004B7E0FFBFFF2A
:10467700071244F2AE8280028F068E8222A211E4D4
:1046870033F58222A20FE433F58222A210E433F538
:104697008222A212E433F58222900C49E0FEA3E0C5
:1046A7008E82F58322C016858116E58260179004F5
:1046B700BAE0FFBFFF0280069004BAEF04F090044F
:1046C700BBE4F080159004BAE4F09004BBE0FFBFB0
:1046D700FF0280069004BBEF04F09004BAE0FFBF2E
:1046E70003004005200F02D20F9004BBE0FFBF0379
:1046F70000400F100F02800A9004B0E4F09004B756
:1047070014F0E51624FDF8E660179004BCE0FFBF3F
:10471700FF0280069004BCEF04F09004BDE4F08033
:10472700159004BCE4F09004BDE0FFBFFF028006D3
:104737009004BDEF04F09004BCE0FFBF14004002FA
:10474700D2109004BDE0FFBFC8004002C210300F76
:104757000CC211C2129004BFE4F00247F7E5162419
:10476700FCF8E670030247F7900C49E0FEA3E0FF70
:10477700C3EE94E1EF940240033011199004BEE0B8
:104787002401F0E0FDBDC80040109004BEE4F0D263
:1047970011D21380059004BEE4F0C374909E740395
:1047A7009F50199004C0E02401F0E0FDBD64004073
:1047B700109004C0E4F0C211C21280059004C0E456
:1047C700F020112CC3EE940DEF9403501E9004BFFC
:1047D700E0FFBFFF0280069004BFEF04F09004BF24
:1047E700E0FFBF18004009D21280059004BFE4F033
:1047F700D01622A213E433F58222C21322C01685F3
:104807008116AE82AF837D557C00E51624FDF8C383
:10481700EC965011EC2EF582E43FF583E0FBEDC3F7
:104827009BFD0C80E58D82D01622C016858116AFC0
:1048370082A20AE433FEBF010A9004AF7406F0C2F5
:104847000A801FBF0217E51624FDF8E660047D0203
:1048570080027D019004AFEDF0C20A8005BF03021C
:10486700D20AA20AE433FFEEB507028008123F9B83
:10487700300A02D20BD01622AE82AF83A3A3A3A322
:10488700E09004ADF08E828F83A3A3A3A3A3E0904F
:1048970004AEF074062EF582E43FF583E0FD7C005C
:1048A70074072EF582E43FF583E0FA7B00900C490C
:1048B700EB4DF0EA4CA3F0D2099004B1E07001226D
:1048C7008E828F83A3A3A3E0F582121E959004B175
:1048D700E0FFBF02079004B2E0FF80027F00900470
:1048E700ADE0B507069004AEE07034300D23C00785
:1048F700123F83AD82AE83D0079004B5E0FBA3E0FF
:10490700FCEDC39BFDEE9CFEC3ED9458EE94024074
:1049170018C20DC00775820012444E1581800A2007
:104927000805C20A123F9BD2083008129004AEE075
:10493700FF9004ADE0C0E08F8212483115819004EA
:10494700B0E02401F0E0FFBF060040089004B0E4A7
:10495700F002456822C016858116AE82AF83E0FD5E
:10496700BD0261E51624FDF8B60A005003024A406D
:104977008E828F83A3E0FCBC06028003024A407448
:10498700022EFBE43FFC8B828C83E06003024A40EB
:10499700C007C0067409C0E08E828F83124804AC3A
:1049A700821581D006D00774092EF582E43FF5837E
:1049B700E0FBECB503028003024A408E828F83122C
:1049C700487F8075BD0324123F83E5828583F0907D
:1049D70004C1F0E5F0A3F09004B07406F09004B7BA
:1049E70074FFF07582F012436E804EBD084BE516DA
:1049F70024FDF8B616004041C007C0067415C0E094
:104A07008E828F83124804AD821581D006D0077439
:104A1700152EF582E43FF583E0FCEDB5041B8E828D
:104A27008F83A3A3E0FF53077FBF0802800B758224
:104A3700F112436E123F9BC213D01622AF827E0043
:104A4700BE06005015EE2470F582E43405F583E0C8
:104A5700B50704758201220E80E675820022AF82B7
:104A67007E00BE05005015EE2476F582E43405F588
:104A770083E0B50704758201220E80E67E00BE063C
:104A8700005015EE247BF582E43405F583E0B50785
:104A970004758201220E80E6758200227F007E0067
:104AA700BE0500503EEE2476FCE43405FD8C828D75
:104AB70083E0FB8C828D83E4F0EB60248B82C0075C
:104AC700C006C003124A43E582D003D006D0076070
:104AD7000FEF2476FCE43405FD0F8C828D83EBF019
:104AE7000E80BD7E00BE06005032EE247BFCE4340F
:104AF70005FD8C828D83E0FB601F8B82C007C0069B
:104B0700C005C004124A43E582D004D005D006D0C0
:104B17000770068C828D83E4F00E80C97E00BE0686
:104B270000505DEE2470F582E43405F583E0FD6006
:104B37004C8D82C007C006C005124A65E582D005C4
:104B4700D006D0077037BF05005011EF2476FBE47D
:104B57003405FC0F8B828C83EDF080217C00BC0632
:104B670000501AEC247BFAE43405FB8A828B83E03D
:104B770070088A828B83EDF080030C80E10E809EA3
:104B870022AF8290056DE0FEBE06004004758200EC
:104B97002290056BE075F01CA4AEF024C3FDEE3443
:104BA70004FE8D028E037C00C007C006C005741C7E
:104BB700C0E0E4C0E0C0E08A828B838CF01294CC22
:104BC700158115811581D005D006D0078D828E837A
:104BD700EFF0BF02028003024C6BC006C005124A09
:104BE700A3D005D00674012DFCE43EFF90056EE0CE
:104BF7008C828F83F07F00BF0500501D8F040C0C43
:104C0700EC2DFCE43EFBEF2476F582E43405F583D6
:104C1700E08C828B83F00F80DE7F00BF060050762A
:104C2700EF247BF582E43405F583E0FC6033BC8038
:104C370000502EC007ECC423541F24082DFBE43E6C
:104C4700FA8B828A83E0FF74075CF5F005F0740144
:104C5700800225E0D5F0FB42078B828A83EFF0D0F4
:104C6700070F80B774012DFCE43EFF900581E08CAF
:104C7700828F83F074022DFCE43EFF900581E0A350
:104C8700E08C828F83F074032DFDE43EFE90058354
:104C9700E08D828E83F090056BE0FF7E000FBF00F2
:104CA700010E7406C0E0E4C0E08F828E831297F491
:104CB700AE821581158190056BEEF090056DE024AD
:104CC70001F07582012230140D758202124B88E5BE
:104CD700826012C2142230150C758203124B88E5CC
:104CE700826002C2152290056EE060047582002280
:104CF7007F00BF06005016EF2470FDE43405FE8DDB
:104D0700828E83E06004758200220F80E575820140
:104D17002230160330140122201712124CEDE582BF
:104D27007001229005707401F0D21780297408C0B1
:104D3700E0E4C0E0C0E090056EF5F01294CC158178
:104D470015811581C217900584E02401F0E0FFBFAB
:104D570003004002C216D21422900585E0FFE060EE
:104D67000AEF14900585F0E0600122124263E582A4
:104D77007001229005857401F090056DE0700612B0
:104D87004D18124CCD90056DE070012290056CE036
:104D970075F01CA4AFF024C3FEEF3404FF8E828F9E
:104DA70083E0FDBD02047D1E80027D0D90048A74A0
:104DB70001F07C008D031B1BC3EC9B50218C030B64
:104DC700EB3395E0FAEB248AFBEA3404FAEC2EF590
:104DD70082E43FF583E08B828A83F00C80D67401EE
:104DE700C0E08D821241EA158185091390056CE0B8
:104DF700FF7E000FBF00010E7406C0E0E4C0E08F25
:104E0700828E831297F4AE821581158190056CEE20
:104E1700F090056DE014F09004B1E0FFBF0206903A
:104E270005857404F022124CCD024D60C0168581B1
:104E370016C082C083A816088682088683E0FD9084
:104E4700056EE0F45205EDB40100B39220A81608F0
:104E5700740226FCE40836FD7B00BB0600503020B8
:104E6700202DEB2CF582E43DF583E0FA601ED2207D
:104E77007F00BF06005015EF2470F582E43405F576
:104E870083E0B50204C22080030F80E60B80CBA825
:104E9700160886050886067F00C0247408C0E0E46B
:104EA700C0E0C005C006C00790056EF5F012943942
:104EB700E58124FBF581D024302009D216C2179052
:104EC7000584E4F0D214124E2D851681D01622AE39
:104ED70082AF83E0FDBD02148E828F83A3E0FBA324
:104EE700E0FC900581EBF0ECA3F08043BD013F8E21
:104EF700828F83A3E0FEA3E0FF8E048F05C3EC94AB
:104F070081ED94009220401DC374839CE49D922000
:104F17004013EE247FF5F005F07401800225E0D5FB
:104F2700F0FBFF80027F00900583EFF0800122D223
:104F370015024E2DE582900585F0229004B1E0FF21
:104F4700BF02047F0980027F037D007E008D038EF0
:104F570004C3EB94E8EC9403506190056DE0700690
:104F6700201403301555C007C006C005124CCDD01C
:104F770005D006D00790056DE06030C007C006C0B9
:104F870005124263E582D005D006D007601DE5090A
:104F9700C39513C39F4014900585E4F0C007C0066E
:104FA700C005124D60D005D006D00775B1007582D7
:104FB700641240C60DBD00950E80922290056DE4E7
:104FC700F090056CF090056BF07408C0E0E4C0E069
:104FD700C0E090056EF5F01294CC1581158115810E
:104FE7007405C0E0E4C0E0C0E0900576F5F01294E7
:104FF700CC1581158115817406C0E0E4C0E0C0E0DE
:1050070090057BF5F01294CC1581158115819005DB
:1050170081E4F0A3F0900583F0C216C217D214D230
:105027001522123F83AE82AF839004C1E0FCA3E058
:10503700FDEEC39CFEEF9DFFC3EE94C8EF940050B6
:105047000122123F83E5828583F09004C1F0E5F0E9
:10505700A3F0E4C0E0C0E07582061242AE158115E8
:10506700811006028006900586E4F022900586E00E
:105077002401F0E0FFBF0300401A900586E4F0D357
:1050870010AF01C3C0D0C20585091053E1FBD2821E
:10509700D0D092AF22024192AF829004B1EFF0C01C
:1050A70007124192D007E50C606C900489E0FE245A
:1050B70086F582E43404F583E0FDEE75F002A4245E
:1050C70040F582749A35F0F583E493FBA3E493FCEF
:1050D700EF6013C007C006C0058B828C8312495C42
:1050E7001581D006D007D310AF01C3C0D0E50C148B
:1050F700F50CD0D092AF8E047D000CBC00010DBC26
:105107000307BD00047C0080060EEEFC3395E0909B
:105117000489ECF08090EF700122124378124486E4
:10512700300E22124263E582601B9004B7E0FFBF96
:10513700FF028011C20EE4C0E0C00775820D124263
:10514700AE15811581123F83AE82AF839004AAE02A
:10515700FCA3E0FDEEC39CFEEF9DFFC3EE9402EFC0
:105167009400401E123F83E5828583F09004AAF0E5
:10517700E5F0A3F0124E2D12502920050553E1FB4F
:10518700D28222E5829004B2F022E5829004B1F047
:0151970022F5
:109A4000410458046F0441554C41204636352042AC
:109A500054352E302041554C412046363520425455
:109A6000332E3020140A0502020202020202020210
:02A9D900A603D3
:10519800900587E0F58222900588E0F58222E58275
:1051A800FFC4540FFE530603900587EEF0EE24FD6E
:1051B8005005900587E4F0530703900588EFF0EF5A
:1051C80070069005887401F0900588E0F582025118
:1051D8008A900587E0C454F0FF900588E042079064
:1051E8000385EFF0021EFB53A9FE53913F90020D79
:1051F800E4F022E59154C0600953913F90001412E5
:105208002C7A02024D124FC3124F42900006022C14
:105218007AC016858116AF82E51624FDF8E6C0E04F
:105228008F8212444E1581124477D01622124449B7
:105238001253A21244EF12520D7414C0E0E4C0E0FD
:10524800C0E0C0E075820E1242EFE58124FCF581D2
:10525800900006122C7A7414C0E0E4C0E0C0E0C0EC
:10526800E075820B1242EFE58124FCF5819000067F
:10527800122C7A1243A1900587E4F075820012512E
:105288009153A9BF1251FB900080122C7A1251D968
:10529800123F9B024801AF82900587E0700DC0075E
:1052A800124FC390000D122C7AD007900587E0B5F5
:1052B800070122900587EFF0E4BF020104FE6015A4
:1052C800900588E0FDBD01004005ED24FC500690E6
:1052D80005887401F0900588E0F582C007C00612C1
:1052E800518AD006D0078F82C006125191124449C4
:1052F8001253A243A9401251EF12520DD006EE608C
:1053080007900588E0FF80027F00C00775820012C1
:10531800521915811251D9123F9B0248012085125A
:1053280090058AE02401F090058BE4F0900589F05F
:10533800802520841290058BE02401F090058AE4F2
:10534800F0900589F08010900589E02401F090051F
:105358008AE4F090058BF0900589E0FFBF0A0040D1
:105368000E900589E4F0900587E0602D0252359093
:10537800058AE0FFBF0A00400B90058AE4F07582B9
:105388000102529E90058BE0FFBF0A00400B90057A
:105398008BE4F075820202529E22C21822C0168542
:1053A8008116E582FF7028E51624FDF8E6601C905A
:1053B8000587E0FEBE0116123F83E5828583F090E3
:1053C800058CF0E5F0A3F0D2188064C2188060E57F
:1053D8001624FDF8E6603D900587E0FEBE02509079
:1053E8000588E0FEEFB506028016900588EFF08F7D
:1053F8008212518A43A9401251EF124FC31251D958
:10540800123F83E5828583F090058CF0E5F0A3F0E8
:10541800D218801B900587E0FFBF021130180E904C
:105428000588E0C0E07582001252191581C218D0B3
:105438001622900587E07003C2182230181F123F09
:1054480083AE82AF8390058CE0FCA3E0FDEEC39CA5
:10545800FEEF9DFFC3EE94B8EF940B500122C218E3
:105468001244EF12520D900587E0FFBF020F90051E
:1054780088E0C0E0758201125219158122BF010B24
:10548800E4C0E0758201125219158122E58224FFD9
:10549800922053D1F043D90F53E6E743EE1875C075
:1054A8000053887853B09253F8EF53801F75E7FF85
:1054B80043E68743E56D43D11043E1E030201B53B9
:1054C800E9FC43E1035380FC53E90F43E1F05380C7
:1054D8000F53D97F43D18053F87FD2B1302002C215
:1054E800FE2275B100C2AF75B60075E80075BA0046
:1054F80053A8FD43B20843BC02900028122C6A75D9
:10550800B10075BC0375B20C5392FD5391FE220095
:10551800758E554387020000000000002275821036
:10552800125A5512520D900080122C7A90000D12CA
:105538002C7A1244BBE582701A7414C0E0E4C0E00F
:10554800C0E004C0E075820B1242EFE58124FCF54F
:105558008180377414C0E0E4C0E07407C0E004C080
:10556800E075820C1242EFE58124FCF58190000D74
:10557800122C7A7414C0E0E4C0E0C0E0C0E0758288
:105588000B1242EFE58124FCF58190000D122C7A74
:105598001243A11240A0C2AF12244A53913F758210
:1055A8000112549475E80075BAF375B64043A80221
:1055B800D2AF43910153B2FB53BCFE53BCFD53B26F
:1055C800F743948553927A75A90053913B538FFE04
:1055D8001231941255171254EA123194E58260037D
:1055E800439102438F019003B6122C6A75B10012E1
:1055F8003559D2AF12244D123F731240581240AFA2
:10560800758208124F3B90000D122C7A123F9B12A4
:105618004801025A8E758210125A55C2AF12244A96
:1056280075820012549475E80075BAF375B6404354
:10563800A802D2AF43910153B2FB53BCFE53BCFD49
:1056480043948553927A75A9011255171254EA1298
:105658003559D2AF12244D123F7312405853A9BF87
:105668001251FB123F9B025A8E123FD2AE82AF8379
:10567800900587E0701B120390E5827013123FBA01
:10568800AC82AD83C3EC9411ED9427400302561D00
:1056980022C007C0061247FAE582D006D007600389
:1056A800025525C007C0061244C2AD82D006D007F5
:1056B800BD03067C3C7D008025C007C0061244E877
:1056C800AB827A00C003C00290000A129227AA8215
:1056D800AB8315811581D006D0078A048B05EC4D64
:1056E800600F0CBC00010DC3EE9CEF9D40030255FA
:1056F8002522C016858116E58275F003A4FFE516FC
:1057080024FDF8E62F909A7093FF7E008F828E8397
:10571800D0162290FF807401F090FF81F090FF82F4
:10572800F090FF83F090FF84F090FF85F090FF8663
:10573800F090FF87F090FF88F090FF89F090FF8A43
:10574800F090FF8BF090FF8CF090FF8DF090FF8E23
:10575800F090FF8FF090FF90F090FF91F012354F8E
:1057680075C0FF43888743B06D43F8102290FF81CE
:105778007408F090FF82F090FF83F090FF84F0901F
:10578800FF85F090FF9C03F090FF9874B0F090FFB5
:10579800B8E4F090FFA074C3F090FFE8E4F090FF45
:1057A800D074C3F090FFB9E4F090FFA174C4F090F6
:1057B800FFE9E4F090FFD174C4F090FFBAE4F090F0
:1057C800FFA274C5F090FFEAE4F090FFD274C5F030
:1057D80090FFBBE4F090FFA374C0F090FFEBE4F0FF
:1057E80090FFD374C0F090FFBCE4F090FFA474C1A4
:1057F800F090FFECE4F090FFD474C1F090FFBDE4AA
:10580800F090FFA574C2F090FFEDE4F090FFD5741E
:10581800C2F090FF877408F090FF88F090FF89F03D
:1058280090FF8AF090FF8BF090FF9D03F090FF9916
:1058380074B0F090FFBEE4F090FFA674BAF090FF49
:10584800EEE4F090FFD674BAF090FFBFE4F090FF5A
:10585800A774BBF090FFEFE4F090FFD774BBF09013
:10586800FFC0E4F090FFA874BCF090FFF0E4F09063
:10587800FFD874BCF090FFC1E4F090FFA974BDF0AC
:1058880090FFF1E4F090FFD974BDF090FFC2E4F00E
:1058980090FFAA74BEF090FFF2E4F090FFDA74BEB5
:1058A800F090FFC3E4F090FFAB74BFF090FFF3E417
:1058B800F090FFDB74BFF090FF8D7408F090FF8EBE
:1058C800F090FF8FF090FF90F090FF91F090FF9E86
:1058D80003F090FF9A74B0F090FFC4E4F090FFAC2E
:1058E80074B4F090FFF4E4F090FFDC74B4F090FF2F
:1058F800C5E4F090FFAD74B5F090FFF5E4F090FFCB
:10590800DD74B5F090FFC6E4F090FFAE74B6F09089
:10591800FFF6E4F090FFDE74B6F090FFC7E4F09075
:10592800FFAF74B7F090FFF7E4F090FFDF74B7F0C3
:1059380090FFC8E4F090FFB074B8F090FFF8E4F07E
:1059480090FFE074B8F090FFC9E4F090FFB174B92B
