:060000000200DE0229F3FC
:03000B0002293F88
:030013000224B212
:03001B000224B903
:030023000224C0F4
:03002B000224C7E5
:030033000224CED6
:03003B000228593F
:03004300022A3658
:03004B000224D5B7
:030053000224DCA8
:03005B000224E399
:030063000235D68D
:03006B00023769F0
:100070000000E2FBEAF2802C0000E0FBEAF08024C2
:10008000E6B50202EBF62200E2B50202EBF2220034
:10009000E0B50202EBF02230F6E0A88220F5D3EAC8
:1000A000C6F582228B822230F6E6A88220F5D9801E
:0100B000CF80
:03013A000200B10F
:0300B10002017BCE
:10013D001224AB1224A7122695122DB21228AC123E
:10014D002DAF1212F3121E1D122E2EAF8290000033
:10015D00EFF0EF600312024D125FF612235CD2AF87
:10016D0022121E43E5827003122E6A022E771201AF
:10017D003D122E5312016E900000E0600312032910
:10018D001251E112228C75B100122E9312352812E4
:10019D00173012628312037F121EA412231580E6FC
:1001AD00120389AF82BF010690037CE07004C22068
:1001BD008002D220A220E433F58222AF830234CB19
:1001CD00AF830234ECC016858116AF82900005EF27
:1001DD00F0900006E51624FCF8E6F008E6A3F09092
:1001ED000005123507D01622AE82AF83900001E0D4
:1001FD00FCA3E0FDEEB50405EFB50501229000016D
:10020D00EEF0EFA3F0C006C0077582011201D21502
:10021D0081158122AE82AF83900003E0FCA3E0FD47
:10022D00EEB50405EFB5050122900003EEF0EFA346
:10023D00F0C006C0077582021201D2158115812208
:10024D00122E1FE58270012290020DE4F090020E35
:10025D00F090020FF0900210F0900211F0C200C267
:10026D0001900213E4F0900212F0900208F0A3F056
:10027D0090020AF0A3F0A3F0900214F0A3F0900204
:10028D0016F00227C190020DE4F090020EF09002DC
:10029D000FF0900210F0900211F0C200C201900216
:1002AD0013E4F0900212F00227D1AE82AF83C007A3
:1002BD00C006120390E582D006D0077001227D00A2
:1002CD007408C0E08E828F838DF01227DB1581229A
:1002DD00AE82AF83C007C006120390E582D006D070
:1002ED00077001227D007416C0E08E828F838DF021
:1002FD00122819158122AE82AF83C007C0061203E2
:10030D0090E582D006D0077001227D007403C0E015
:10031D008E828F838DF01228191581227E007F0029
:10032D008E048F05C3EC94A0ED940F503575B1007C
:10033D00900216E0600D900214E0F5F0A3E045F098
:10034D00700B22C3EC94F4ED940140012290000156
:10035D00C007C00612246CD006D0070EBE00C10F18
:10036D0080BE2230010B300008200305D2034391DB
:10037D00022230020612522102249D22900210E028
:10038D00F5822290020DE0FFBF0203D38001C392DC
:10039D0020E433F58222C016E581F5162408F58197
:1003AD00D310AF01C3C0D0AF160F7E007D408F823A
:1003BD008E838DF01212CBD0D092AFAF160F8F016E
:1003CD008706EF04F987058E04BC0002802DBC0161
:1003DD00030204BABE020302051ABE210302056F11
:1003ED00BE8003020478BE81030204D8BE820302DC
:1003FD000551BEA1030205B90205E9BD0102801434
:10040D00BD03028021BD0502802EBD0702803BBDCC
:10041D000950803C8F037C007E408B828C838EF054
:10042D001207140205EF8F037C007E408B828C83B4
:10043D008EF01207570205EF8F037C007E408B82F2
:10044D008C838EF01206CD0205EF12094A0205EFDC
:10045D008F037C007E408B828C838EF012087D0290
:10046D0005EF4397084397020205EFBD0002800A8E
:10047D00BD06028017BD082C80248F037C007E40B2
:10048D008B828C838EF01209510205EF8F037C0055
:10049D007E408B828C838EF0120AAD0205EF120F17
:1004AD00550205EF4397084397020205EFBD0B1266
:1004BD008F037C007E408B828C838EF01208E402C9
:1004CD0005EF4397084397020205EFBD0002800A2E
:1004DD00BD06028017BD0A2C80248F037C007E4050
:1004ED008B828C838EF01209900205EF8F037C00B6
:1004FD007E408B828C838EF0120AAD0205EF120FB7
:10050D006D0205EF4397084397020205EFBD010207
:10051D008005BD032680128F037C007E408B828C6C
:10052D00838EF012079A0205EF8F037C007E408BBD
:10053D00828C838EF012081A0205EF4397084397B9
:10054D00020205EFBD00128F037C007E408B828C72
:10055D00838EF01209EC0205EF43970843970202D0
:10056D0005EFBD0902800ABD0A028016BD0B35805C
:10057D00228F037C007E408B828C838EF0120F893C
:10058D0080608F037C007E408B828C838EF01210F6
:10059D0033804F8F037C007E408B828C838EF012D4
:1005AD00106A803E4397084397028036BD01028052
:1005BD000ABD0202800ABD031B800A120F8280222F
:1005CD00121058801D7E007D408F828E838DF0121B
:1005DD0010C4800E43970843970280064397084343
:1005ED009702851681D01622AF92AE93EF7003025B
:1005FD00068AEF30E3275392F7900214E0FCA3E054
:10060D00FD900214E0F5F0A3E045F0600D1CBCFF79
:10061D00011D900214ECF0EDA3F0C201225392EFF4
:10062D0053929FEF30E70653927F02024DEF30E475
:10063D00145392EF90021474F4F07401A3F090022D
:10064D0016F00203A3EF30E2065392FBD20322EF22
:10065D0030E1105392FD90020DE0FDBD0261D2011B
:10066D00C20322EF30E0585392FE43912000000068
:10067D000000005391DF12024D43970122EE603FBF
:10068D00EE30E6075393BF439A0122EE30E5045353
:10069D0093DF22EE30E40A5393EF121105439701D5
:1006AD0022EE30E2065393FB022858EE30E106535A
:1006BD0093FD022857EE30E0065393FE02115022AF
:1006CD00AD82AE83AFF0900213E4F074022DFDE421
:1006DD003EFE8D828E838FF0128C5EFBA3128C5E9C
:1006ED004B600890020D7401F0800590020DE4F04E
:1006FD008D828E838FF0128C5E90020EF0539BF0E4
:10070D0043970243970422AD82AE83AFF09002135C
:10071D00E4F08D028E038F048A828B838CF0128C11
:10072D005E540F701E74022DFDE43EFE8D828E838D
:10073D008FF0128C5EFDA3128C5EFEBD0105BE0016
:10074D0002C200539BF043970422AD82AE83AFF0FB
:10075D00900213E4F08D028E038F048A828B838CBA
:10076D00F0128C5E540F701E74022DFDE43EFE8D52
:10077D00828E838FF0128C5EFDA3128C5EFEBD0106
:10078D0005BE0002D200539BF043970422AE82AD0A
:10079D0083AFF0900213E4F08E028D038F048A82F2
:1007AD008B838CF0128C5EFA53020FBA02587402CE
:1007BD002EFAE43DFB8F048A828B838CF0128C5EC3
:1007CD00FAA3128C5E4A703E74042EFEE43DFD8E3B
:1007DD00828D838FF0128C5EFEA3128C5EFF4E70A5
:1007ED00085397F75397FD801DBE8108BF00055331
:1007FD0099F78012BE8208BF0005539AF780074310
:10080D00970843970222539BF043970422AD82AE83
:10081D0083AFF0900213E4F08D028E038F048A8271
:10082D008B838CF0128C5EFA53020FBA023474046F
:10083D002DFDE43EFE8D828E838FF0128C5EFDA326
:10084D00128C5EFEBD8108BE0005439908801ABD5D
:10085D008208BE0005439A08800F4397084397020C
:10086D00800743970843970222539BF04397042236
:10087D00AE82AD83AFF0900213E4F090020EE06013
:10088D004974022EFEE43DFD8E828D838FF0128C15
:10089D005EFEA3128C5EFF4E600A8E048F05BC01B6
:1008AD0021BD001E90020FEEF0EE600890020D7457
:1008BD0002F0800690020D7401F0539BF0439704F3
:1008CD00800E43970843970280064397084397028B
:1008DD00539BF043970422AE82AD83AFF090021389
:1008ED00E4F074022EFAE43DFB8F048A828B838C34
:1008FD00F0128C5EFAA3128C5E4A703A74042EFECE
:10090D00E43DFD8E828D838FF0128C5EFEA3128CE2
:10091D005EFF4E700A539BF043970443970222BE2D
:10092D00010DBF000A539BF04397044397022243E6
:10093D00970843970222439708439702224397084B
:10094D0043970222AD82AE83AFF09002137402F092
:10095D008D828E838FF0128C5E540F701F300008C5
:10096D009011087402F08005901108E4F0901109BF
:10097D00E4F0539BF0439B024397042243970843B3
:10098D00970222AE82AD83AFF08E028D038F048A63
:10099D00828B838CF0128C5EFA53020FBA0139747C
:1009AD00042EFEE43DFD8E828D838FF0128C5EFE53
:1009BD00A3128C5EFF4E6006BE0116BF0013901190
:1009CD0008E4F0901109F0539BF0439B0243970408
:1009DD00224397084397022243970843970222AD7B
:1009ED0082AE83AFF08D028E038F048A828B838C4F
:1009FD00F0128C5EFA53020FBA02028003020AA6AD
:100A0D0074042DFDE43EFE8D828E838FF0128C5E7C
:100A1D00FDA3128C5EFEBD801BBE0018AC97530467
:100A2D0002E4A2E713CC13CC901108ECF09011095D
:100A3D00E4F0805BBD8127BE0024AC99530408E42B
:100A4D0023CCC423541F6CCC541FCC6CCC30E4028B
:100A5D0044E0901108ECF0901109E4F08031BD8272
:100A6D0027BE0024AE9A530608E423CEC423541F98
:100A7D006ECE541FCE6ECE30E40244E0901108EEDF
:100A8D00F0901109E4F08007439708439702225331
:100A9D009BF0439B024397042243970843970222FE
:100AAD00C016858116C082C083C0F0E581240BF588
:100ABD0081A81608740226FAE40836FB0886048A13
:100ACD00828B838CF0128C5EFAA3128C5EFC8A07EB
:100ADD00BC01547C007A009090D5E493FDA3E4937F
:100AED00FE8D828E83E493FF7B00C3EC9FEA9B50C7
:100AFD001EEC2408FBEA3400FFEC2DF582EA3EF5EE
:100B0D0083E4938B828F83F00CBC00CB0A80C87D6D
:100B1D00087E007F00900008E0FBE5162404F8A68F
:100B2D0003087600020F04BC02028003020CC99078
:100B3D0090D9E493FBC3EF9B4003020CC99090DA6C
:100B4D00E493FAA3E493FBEF75F002A42AF582EB8C
:100B5D0035F0F583E493FFA3E493FE74092FFDE4D0
:100B6D003EFCE516240DF876000876008F828E8304
:100B7D00E5162406F8E493F6E5162406F886027BBE
:100B8D0000E516240DF8C3E69A08E69B503EE516DF
:100B9D00240DF8E5162407F9E62408F708E63400D5
:100BAD0009F7E516240DF8E62FF58208E63EF583E4
:100BBD00E493FBE5162407F88682088683EBF0E5BF
:100BCD0016240DF806B60002080680A0E5162406C8
:100BDD00F8E5162409F9E62408F7E4340009F7E5E9
:100BED00162407F8A60508A604E516240DF87600C8
:100BFD00087600E5162407F88682088683E493FFBD
:100C0D00A3E493FE8F828E83E493FB7A00E5162492
:100C1D000DF8C3E69B08E69A5034E5162409F8E56D
:100C2D0016240DF9E726FD09E70836FCE516240D17
:100C3D00F8E62FF58208E63EF583E4938D828C83EA
:100C4D00F0E516240DF806B60002080680A58F8281
:100C5D008E83E493FBE5162409F8EB26F6E40836BB
:100C6D00F6E5162407F8740226F6E40836F6E516BE
:100C7D002407F88682088683E493FAA3E4934A60F6
:100C8D0003020BF690000AE0FAA3E04A7017E5168E
:100C9D002409F8E6C39408FA08E69400FB90000ACC
:100CAD00EAF0EBA3F07D087E007F0090000AE516C8
:100CBD002404F8E0F6A3E008F6020F04E4BC0301F7
:100CCD0004FB604CEF7049FDFC9090CBE493FA7FF0
:100CDD0000C3ED9AEC9F5020ED2408FFEC3400FE8C
:100CED00ED24CBF582EC3490F583E4938F828E83E3
:100CFD00F00DBD00D40C80D17D087E007F009000EA
:100D0D0008E0FAE5162404F8A602087600020F049E
:100D1D00EB7003020DEEC0047E00EF24FFFDEE34F8
:100D2D00FFFB9090DCE493FA7C00C3ED9AEB6480BA
:100D3D008CF063F08095F0D0044003020DEE90909E
:100D4D00DDE493FDA3E493FCEF24FFFAEE34FFFB07
:100D5D00EA2AFAEB33FBEA2DF582EB3CF583E493BB
:100D6D00FEA3E493FD9000087402F090000904F0D6
:100D7D00E516240BF874012409F6E4340008F68E08
:100D8D00828D83E493FF60418F030EBE00010DE55C
:100D9D0016240BF88682088683EBF0E516240BF8F3
:100DAD00740126FAE40836FB8A828B83E4F0E5169B
:100DBD00240BF874012AF6E43B08F6900008E0FBDA
:100DCD000B0B900008EBF080B67D087E007F009045
:100DDD000008E0FBE5162404F8A603087600020FD0
:100DED0004BC224CA81608740426FFE40836FE083D
:100DFD0086058F828E838DF0128C5EFA70137DB412
:100E0D007E8F7F80E5162404F87644087600020F65
:100E1D0004BA01137DF87E8F7F80E5162404F876E1
:100E2D0076087600020F04439708439702020F4F8E
:100E3D00BC21028003020EFCA81608740426FAE4F5
:100E4D000836FB0886048A828B838CF0128C5EFC3C
:100E5D007048FDFC909089E493FB7A00C3ED9BEC08
:100E6D009A5020ED2408FFEC3400FEED2489F58224
:100E7D00EC3490F583E4938F828E83F00DBD00D416
:100E8D000C80D17D087E007F00900008E0FBE51608
:100E9D002404F8A603087600805DBC014A7F007E1D
:100EAD00009090A2E493FA7C00C3EF9AEE9C502040
:100EBD00EF2408FBEE3400FCEF24A2F582EE349013
:100ECD00F583E4938B828C83F00FBF00D40E80D119
:100EDD007D087E007F00900008E0FCE5162404F8F4
:100EED00A604087600801043970843970280534369
:100EFD009708439702804BA81608740626FBE40852
:100F0D0036FA0886048B828A838CF0128C5EFBA3E2
:100F1D00128C5EFCE5162404F8C3EB96EC089640A3
:100F2D000AE5162404F88603088604C003C0048D60
:100F3D00828E838FF01211791581158112119F43C5
:100F4D009704851681D016229002137402F0900238
:100F5D000FE0901108F0539BF0439B01439704223F
:100F6D009002137402F0901108E4F0539BF0439B30
:100F7D00014397042243970843970222C0168581A7
:100F8D0016C082C083C0F0A81608740226FBE408C0
:100F9D0036FA0886048B828A838CF0128C5EFBA352
:100FAD00128C5EFABA02028005BA036E804DA81645
:100FBD0008740426FDE40836FE0886078D828E83AC
:100FCD008FF0128C5EFDA3128C5E4D7053A8160827
:100FDD00740626FDE40836FE0886078D828E838F03
:100FED00F0128C5EFDA3128C5EFEBD0133BE00308F
:100FFD009002137404F04397018025900213E4F0DE
:10100D00BB05099002137405F0439701900213E09C
:10101D00700E439708439702800643970843970243
:10102D00851681D01622AD82AE83AFF074022DFDF0
:10103D00E43EFE8D828E838FF0128C5EA3128C5E49
:10104D00900212F0539BF043970422900212E0900D
:10105D001108F0539BF0439B0143970422AD82AEE0
:10106D0083AFF074042DFBE43EFA8F048B828A83E8
:10107D008CF0128C5EFBA3128C5EFC4B701874020C
:10108D002DF8E43EF98F02888289838AF0128C5EF6
:10109D00900210F0801ABB0117BC001474022DFDD4
:1010AD00E43EFE8D828E838FF0128C5E900211F0E5
:1010BD00539BF043970422AE82AD83AFF074042EA0
:1010CD00FEE43DFD8E828D838FF0128C5EFEA312A9
:1010DD008C5EFF4E700A900210E0901108F0800EA9
:1010ED00BE010BBF0008900211E0901108F0539B58
:1010FD00F0439B0143970422900213E0FFBF0415B8
:10110D00900213E4F0901100E0F582121E37539B0C
:10111D00F043970422BF051F900213E4F0901100D5
:10112D00E0FFBF050B901101E0FFBF7503D2022256
:10113D00539BF043970422900213E4F0539BF0432A
:10114D00970422900213E0FFBF010A12119F4397EB
:10115D000443970122BF0207439701439708224397
:10116D00970843970190020EE0F59622C0168581EF
:10117D0016AFF0AE83E58290020AF0EEA3F0EFA376
:10118D00F0E51624FCF8900208E6F008E6A3F0D08E
:10119D001622900208E0FEA3E0FF4E700D900213A0
:1011AD007402F0539BF0859B9B228E048F05C374B4
:1011BD00089CE49D50589002137401F090020AE0CF
:1011CD00F9A3E0FAA3E0FB7408C0E089828A838B5F
:1011DD00F012127E1581900208E0FAA3E0FBEA24DA
:1011ED00F8FAEB34FFFB900208EAF0EBA3F0900263
:1011FD000AE0F9A3E0FAA3E0FB90020A740829F0D3
:10120D00E43AA3F0EBA3F0539BF0439B0822BC08F8
:10121D0031BD002E9002137401F090020AE0FBA381
:10122D00E0FCA3E0FD7408C0E08B828C838DF0128E
:10123D00127E1581900208E4F0A3F0539BF0439BBE
:10124D0008229002137402F090020AE0FCA3E0FD64
:10125D00A3E0FFC0068C828D838FF012127E158164
:10126D00539BF0900208E0FEA3E0AD9BEE4DF59B85
:10127D0022C016858116C082C083C0F0E51624FDFC
:10128D00F8E624F740327C00E51624FDF8C3EC9611
:10129D005026EC2408FAE43411FBA81608EC26FDC0
:1012AD00E40836FE0886078D828E838FF0128C5EE1
:1012BD008A828B83F00C80D0851681D01622AD8268
:1012CD00AE83AFF07C00BC0800501AEC2DF9E43E63
:1012DD00FA8F038C82758311E089828A838BF012D9
:0612ED0089410C80E122A2
:108FB40005010906A101050719E029E715002501A6
:108FC400750195088102750895018101050719004D
:108FD40029FF150026FF007508950681000508196C
:108FE4000129051500250175019505910275039563
:108FF400019101C005010980A1018501198129831D
:109004001500250175019503810295058101C005AF
:109014000C0901A101850219002AFF02150026FF8F
:1090240002751095018100C00600FF0901A10185A8
:109034000519012902150026FF0075089505B102DE
:10904400C005010906A1018506050719E029E715F0
:1090540000250175019508810205071900299F154E
:10906400002501750195A08102C0120110010000C4
:1090740000088A250C010000010203010904000014
:109084000103010100092111010001224400070527
:1090940081031000010904010001030000000921FB
:1090A4001101000122760007058203400001090234
:1090B4000000020100A0FA8090899092909990A2F9
:1090C40090AB900000B29004030904DF90E390F2A7
:1090D400906E90000001C99003CF90534D4B004116
:1090E400554C41204636352028534D4B290030300D
:0390F40030310018
:1012F300900238E4F0900239F0900237F0FFBF100B
:1013030000501BEF2417F582E43402F583E4F0EF79
:101313002427F582E43402F583E4F00F80E022E52C
:1013230082900239F022C016858116AE82AF839077
:101333000238E0FDE070068E828F838045ED75F004
:10134300A0A42469FC749135F0FDE51624FDF8E6AC
:10135300C42354E02CFCE43DFDE51624FCF8E6260A
:101363002CF582E43DF583E493FCA3E493FD8C0226
:101373008D03BA0105BB000280048C068D078E82A3
:101383008F83D01622C016858116AE82AF838E045A
:101393008F05C3EC94E0ED9400404574E79CE49D15
:1013A300403EE51624FDF8E660198E0374075BF5ED
:1013B300F005F07401800225E0D5F0FBF582121CE4
:1013C300DF80178E0374075BF5F005F0740180026C
:1013D30025E0D5F0FBF582121CE8121805021480F3
:1013E300C3EC9404ED9400403474A49CE49D402D1C
:1013F300E51624FDF8E660118E03C00390033A75E9
:10140300F000121BF51581800F8E03C00390033A81
:1014130075F000121C3E15811218058060C3EC9410
:10142300A5ED9400402974A79CE49D4022E5162471
:10143300FDF8E6600D8E038B82121D33AA82AB8307
:1014430080047A007B008A828B831201F5802EC38D
:10145300EC94A8ED9400402574C29CE49D401EE5E5
:101463001624FDF8E6600B8E82121D54AE82AF8304
:1014730080047E007F008E828F83120221D0162289
:10148300C016858116AF82900239E075F0A0A424BE
:1014930069FD749135F0FEEFC42354E02DFDE43E65
:1014A300FEE51624FDF8E626FC2DF582E43EF583E1
:1014B300E493FDA3E493FE8D028E03C3EA9420EB31
:1014C3009452403A743F9A74529B4032E51624FC7E
:1014D300F8E660118D03900238741F5BF07582018A
:1014E300122F5A801790033A75F000121C8790024E
:1014F30038E4F0758200122F5A1218058070E51631
:1015030024FCF8E6603DC007C004E51624FDF8E6B8
:10151300C0E0C0078D828E83121329AD82AE83157E
:10152300811581D004D007EF75F020A4243AFA7412
:101533000235F0FBEC2AF582E43BF583EDF0EEA3F4
:10154300F0801AEF75F020A4243AFB740235F0FF03
:10155300EC2BF582E43FF583E0FDA3E0FEE51624E2
:10156300FCF8E6C0E08D828E831215741581D016C7
:1015730022C016858116AE82AF83C007C006E5166A
:1015830024FDF8E6C0E08E828F83123165AD8215AB
:1015930081D006D007ED70028031C007C006E51682
:1015A30024FDF8E6C0E08E828F83125E74AD82154F
:1015B30081D006D007ED70028011E51624FDF8E610
:1015C300C0E08E828F831213881581D01622C01635
:1015D300E581F5162406F581E582FF2417F582E4FB
:1015E3003402F583E0FEE51624FDF8EE66541FFD94
:1015F300E5162405F8A605ED7014EF242AFBE43460
:1016030003FD8B828D83E070058E820216AFE51693
:101613002406F876007B01EF75F005A424DAFA744A
:101623000235F0FCA81608A60208A6047D00BD0535
:10163300005066E5162405F8EB566049C007E51629
:101643002403F8ED2AF6E43C08F6E5162403F886AD
:1016530082088683E0FF0FE5162403F88682088656
:1016630083EFF0BF0400D0074011EB6206E51624B8
:1016730003F88682088683E4F08018E5162406F8CA
:10168300EB46F6800EA81608ED26F582E40836F53B
:1016930083E4F00DEB2BFB8095EF242AF582E434F1
:1016A30003F583E5162406F8E6F08E82851681D0CD
:1016B30016221251F5122D41128F2A122C5E7F0031
:1016C300BF1000505B8F82C007122C6A90000A1271
:1016D300245C122D26AE8290000AC00612245C12EE
:1016E3002D26AD82D006D007EEB50528EF2417FCD2
:1016F300E43402FDEEF4FEC007C005C004C0068F4B
:10170300821215D1AE821581D004D005D0078C8208
:101713008D83EEF08F82C007122CC8D0070F80A0F4
:10172300128C5D1251FB9002377401F022C016E552
:1017330081F5162410F581900237E07005F58202D9
:1017430017FF900237E4F0AF160FFEBE10005012E1
:10175300EE2FF9EE2417F582E43402F583E0F70E59
:1017630080E9C2207E00BE100040030217F9EE2F6D
:10177300F98705EE2427F582E43402F583E0FCEDD6
:101783006204ECFB606CD220C007C006C005C00336
:10179300C0241222ECD024D003D005D006D0077C7D
:1017A300017A00BA0500503EEC5B6034C007EC5D83
:1017B30024FFE433FFC007C006C005C004C003C054
:1017C30002C024C007C0068A8212148315811581C2
:1017D300D024D002D003D004D005D006D007D00740
:1017E3000AEC2CFC80BDEE2427F582E43402F58359
:1017F300EDF00E021769A220E433F582851681D03D
:1018030016221201ADE582600302187702181290C6
:101813000C01E0FF90033AF0900C02E042079003C2
:101823003AEFF07408C0E0E4C0E07442C0E074032F
:10183300C0E0E4C0E090033AF5F0128A02AE82AF52
:1018430083E58124FBF581EE4F60287F00BF08000C
:10185300501BEF2442FDE43403FEEF243AF582E407
:101863003403F583E08D828E83F00F80E090033A9A
:101873000201C82290034A7406F0900C01E0FF9025
:10188300034BF0900C02E0420790034BEFF0741609
:10189300C0E0E4C0E07460C0E07403C0E0E4C0E012
:1018A30090034AF5F0128A02AE82AF83E58124FBEE
:1018B300F581EE4F60287F00BF1600501BEF2460B8
:1018C300FDE43403FEEF244AF582E43403F583E0B8
:1018D3008D828E83F00F80E090034A0201CD22AD0A
:1018E30082AE83AFF074022DFDE43EFE7C06C0079A
:1018F300C006C005C0041201ADE582D004D005D0F6
:1019030006D00760087D4C7E037F007C147B008C2F
:10191300021CEA60158D828E838FF0128C5EFAA30F
:10192300AD82AE83EA60E80B80E58B8222AD82AEA6
:1019330083AFF0C007C006C0051201ADE582D00534
:10194300D006D007603B7C00BC14005012EC244C42
:10195300FAE43403FB8A828B83E070030C80E9ECA6
:10196300C40354F8FBEC244CF582E43403F583E020
:10197300F582C003121D07AC82D003EC42038B82B5
:101983002274022DFDE43EFE8D828E838FF0128C35
:101993005EF58222C01685811605810581AD82AE72
:1019A30083AFF0E51624FDF8E67005F582021A5CB4
:1019B300C007C006C0051201ADE582D005D006D030
:1019C300076051E51624FDF8E6C423541FFCBC143C
:1019D30000503CEC244CFFE43403FEE51624FDF8F0
:1019E30086E05407F5F005F07D017A008006ED2DC1
:1019F300FDEA33FAD5F0F78F828E83E0FB7C00EDAE
:101A03005203EA5204EB4C24FFE433F582804A7517
:101A13008200804574022DFDE43EFEA81608760080
:101A2300A81608B60600502EA81608E62DFAE43EBE
:101A3300FB8F048A828B838CF0128C5EFAE516246A
:101A4300FDF8E6B50205758201800EA81608A916F1
:101A530009E604F780CA758200851681D01622C074
:101A630016858116C082C083C0F07CFF7B00C3EB68
:101A730064809486503AC004A81608740226FAE4D7
:101A83000836FC088607EB2AFAE43CFC8A828C833E
:101A93008FF0128C5EFFE51624FDF8E6B50704D03F
:101AA30004800DD004BCFF05EF70028B040B80BED5
:101AB300BB062ABCFF028025A81608740226FDE493
:101AC3000836FE088607EC2DFCE43EFB8F028C8271
:101AD3008B838AF0E51624FDF8E612894185168189
:101AE300D01622C016858116058105810581AD8238
:101AF300AE83AFF074022DFDE43EFE7C00BC060015
:101B03005037A81608EC2DF6E43E08F608A607A8F9
:101B1300160886820886830886F0128C5EFBE5161B
:101B230024FDF8E6B5030FA8160886820886830805
:101B330086F0E41289410C80C4851681D01622C038
:101B430016858116AD82AE83AFF0E51624FDF8E667
:101B5300C423541FFCBC1400503B74022DFDE43E0F
:101B6300FEEC2DFCE43EFB8F02E51624FDF886E037
:101B73005407F5F005F07401800225E0D5F0FBFF72
:101B83008C828B838AF0128C5E42078C828B838AD1
:101B9300F0EF128941D01622C016858116AD82AEB0
:101BA30083AFF0E51624FDF8E6C423541FFCBC14F0
:101BB30000503C74022DFDE43EFEEC2DFCE43EFBA4
:101BC3008F02E51624FDF886E05407F5F005F0745E
:101BD30001800225E0D5F0FBF4FF8C828B838AF031
:101BE300128C5E52078C828B838AF0EF128941D06C
:101BF3001622C016858116AD82AE83AFF0C007C032
:101C030006C0051201ADE582D005D006D0076015E8
:101C1300E51624FDF8E6C0E090034A75F000121BB8
:101C23004215818013E51624FDF8E6C0E08D828E0F
:101C3300838FF0121A621581D01622C01685811681
:101C4300AD82AE83AFF0C007C006C0051201ADE59B
:101C530082D005D006D0076015E51624FDF8E6C04E
:101C6300E090034A75F000121B9B15818013E51663
:101C730024FDF8E6C0E08D828E838FF0121AE615FC
:101C830081D01622AD82AE83AFF0C007C006C00577
:101C93001201ADE582D005D006D00760187414C0D8
:101CA300E0E4C0E0C0E090034CF5F0128C03158132
:101CB300158115812274022DFDE43EFE7406C0E0F9
:101CC300E4C0E0C0E08D828E838FF0128C03158117
:101CD3001581158122900C01E0F58222AF82900CD0
:101CE30001E04FF022E582F4FF900C01E05FF02267
:101CF300E582900C01F022900C01E4F022900C029A
:101D0300E0F58222AF827E00EFC4540FFD60048DA4
:101D1300077E04EF0303543FFD60088D078E0574AF
:101D2300022DFEEFC31360058E07EF04FE8E8222A1
:101D3300AF82BFA502800ABFA6028009BFA70E809B
:101D430008900001229000022290000422900000DB
:101D530022AF82BFA8005003021E19EF243D500397
:101D6300021E19EF2458FF240A83F582EF241F83F0
:101D7300F583E473ADB1B5B9BDC9D1D5CDD9DDE135
:101D8300EDF1F5F9FD010DC1C50509E5E911151DD4
:101D93001D1D1D1D1D1D1D1D1D1D1D1D1D1D1D1D70
:101DA3001E1E1D1D1E1E1D1D1E1E9000E2229000E4
:101DB300E9229000EA229000B5229000B62290001A
:101DC300B3229000B4229000B7229000CC2290005E
:101DD300CD229001832290018A22900192229001C8
:101DE300942290019F229001CB2290022122900203
:101DF300232290022422900225229002262290027E
:101E0300272290006F229000702290022A229002D3
:0A1E13009F229002A02290000022FE
:02A0BE000000A0
:101E1D00900376E4F0900377F0900378F0900379D7
:101E2D00F090037AF090037BF022AF82900376EF6F
:101E3D00F02222021E3F7434C0E090037D122AACC2
:101E4D00AF821581EF600475820122740AC0E090A3
:101E5D00037D122AACAF821581EF7003F582227FCC
:101E6D000ABF3400500FEF247DF582E43403F5836F
:101E7D00E4F00F80EC758201229003B1E4F0125270
:101E8D00017434C0E090037D122B5215810252076C
:101E9D009003B17401F0229003B1E06003021E863D
:101EAD0022C016858116AF82BF00028038BF0102A5
:101EBD008005BF02308017E51624FCF88682128952
:101ECD00FAAF82E51624FBF8E62FF5828036E5168B
:101EDD0024FDF886821289FEAF82E51624FBF8E612
:101EED002FF582801FE51624FCF8E6C0E0E51624E8
:101EFD00FDF88682128FA9AF821581E51624FBF8B5
:101F0D00E62FF582D01622C016E581F5162406F5CA
:101F1D0081AF82BF55005064E51624FBF8A9160960
:101F2D00E6F708E609F708E609F78F03EB75F00306
:101F3D00A4D394FFF4FBA81608868208868308862E
:101F4D00F0EB128941A81608740126FAE40836FB55
:101F5D000886068A828B838EF0E4128941A81608C2
:101F6D00740226FCE40836FD088606EF75F003A41E
:101F7D008C828D838EF012894102204FBFAA0050B2
:101F8D00668F06EE24ABFFE51624FBF8A91609E6CD
:101F9D00F708E609F708E609F7A816088682088605
:101FAD00830886F0E4128941A816080426FAE4088D
:101FBD0036FD088606EF75F003A48A828D838EF0B8
:101FCD00128941A81608740226FCE40836FD08861D
:101FDD00068F03EB75F003A4D394FFF48C828D83ED
:101FED008EF0128941805BEF2456FFE51624FBF835
:101FFD008604088605088606EF75F003A48C828D8D
:10200D00838EF0128941E5162404F874012CF6E450
:10201D003D08F608A606EF75F003A4D394FFF4FF70
:10202D00E5162404F886820886830886F0EF128967
:10203D004174022CFCE43DFD8C828D838EF0E41204
:10204D008941851681D01622C016E581F516240624
:10205D00F581AF82BF0360E51624F7F88602088686
:10206D0003088607E5162404F874012AF6E43B08F4
:10207D00F608A60774022AFCE43BFD8F068C828DC0
:10208D00838EF0E51624FAF8E6128941E51624044C
:10209D00F886820886830886F0E51624FAF9E71299
:1020AD0089418A828B838FF0E51624FAF8E612892E
:1020BD0041758201022202BF0400400675820002B2
:1020CD002202E51624FBF8E6C0E0E51624FCF8E64E
:1020DD00C0E0E51624FDF8E6C0E08F82121EAEAF1B
:1020ED0082158115811581E51624F7F8E6C0E00803
:1020FD00E6C0E008E6C0E08F82121F14158115813D
:10210D001581E51624F7F886050886060886078DDD
:10211D00828E838FF0128C5EFC7B00E51624FAF81C
:10212D00A91609E6F7097700C007C006C005A8166D
:10213D0008E6C0E008E6C0E08C828B8312895EACB5
:10214D008315811581D005D006D0078C038D828E25
:10215D00838FF0EB128941E5162404F874012DF6F6
:10216D00E43E08F608A607E5162404F886820886DC
:10217D00830886F0128C5EFC7B00C007C006C0058C
:10218D00A81608E6C0E008E6C0E08C828B831289B1
:10219D005EAC8315811581D005D006D0078C03E583
:1021AD00162404F886820886830886F0EB1289418E
:1021BD0074022DFDE43EFE8D828E838FF0128C5EB7
:1021CD00FC7B00C007C006C005A81608E6C0E008E5
:1021DD00E6C0E08C828B8312895EAC8315811581FC
:1021ED00D005D006D0078C038D828E838FF0EB1235
:1021FD008941758201851681D01622C016858116FA
:10220D00AF82BF031DE51624F8F88604088605087D
:10221D0086068C828D838EF074FF12894175820142
:10222D00805ABF040040057582008050E51624FBDE
:10223D00F8E6C0E0E51624FCF8E6C0E0E51624FD5E
:10224D00F8E6C0E08F82121EAEAF821581158115A2
:10225D0081E51624F8F88604088605088606BF80F1
:10226D00005005EF2FFB800774FFC39F25E0FB8C0B
:10227D00828D838EF0EB128941758201D0162290EA
:10228D0003B2E4F0A3F09003B4F09003B5F022E5AF
:10229D00827001229003B4E060109003B4E4F090DA
:1022AD0003B2F0A3F09003B5F0229003B2E0FEA3C9
:1022BD00E0FFC3EE9408EF945250239003B2E02454
:1022CD0001FEA3E03400FF9003B2EEF0EFA3F0C3E4
:1022DD00EE9408EF945240069003B57401F02290ED
:1022ED0003B47401F022AF82BF01028005BF021456
:1022FD00800B9003B5E024FFE433F58222A201E4C4
:10230D0033F5822275820022122DF2AF82C00712A0
:10231D0022F3E582D0077007BF0101220222EC9063
:10232D0003B5E4F0BF0203048001E4B40100E4331B
:10233D00FFC0071223EC1251F5122DF6D0078F8234
:10234D00122917122DFC1251FB1223EF0222EC90D1
:10235D0003B67401F09003B7E4F00229C3D310AFB4
:10236D0001C3C0D09003B8E0FEA3E0FFD0D092AF80
:10237D008E828F83227582001229D81216B5900392
:10238D00B8E0FEA3E0FF9003B874012EF0E43FA384
:10239D00F0227582011229D812895DE4C0E0900304
:1023AD0076F5F0125492AF821581C00712895CD078
:1023BD00078F8202229C9003B6E0600C9003B6E476
:1023CD00F09003B7F002238212239F9003B7E0240D
:1023DD0001FFF0BF010040069003B67401F0220228
:1023ED0029ED0229F0C2AF53A9FD90FF80E47F12C1
:1023FD00F0A3DFFCF5E2F5E3F5E47904E9440060D0
:10240D00237A017BBE7CA07D017E0C8C838B82E4C4
:10241D0093A3AB82AC838E838D82F0A3AD82AE830A
:10242D00D9E9DAE775820022AE82AF83BE0005BF1F
:10243D000003801A0F801300000000000000000050
:10244D0000000000000000000000DEEBDFE922AE1E
:10245D0082AF83EE4F7001228E828F83022435AEC0
:10246D0082AF838E048F051EBEFF011FEC4D601FD2
:10247D007D00BD040050EC75B1009000FAC007C09E
:10248D0006C00512245CD005D006D0070D80E322CE
:10249D00C2AF75F0A5745A02FF00758F012290032B
:0524AD00BAE5B1F022C8
:030137007508FF49
:1024B20075080253A8FB3275080353A8F732750852
:1024C2000453A8EF3275080553A8DF327508065386
:1024D200A8BF3275080953A9FB3275080A53A9F738
:1024E2003275080B53A9EF32C016858116AF82D31D
:1024F20010AF01C3C0D0EF60027401FF8FA77F004D
:10250200E51624F9F8C3EF96502E8F06E51624FC43
:10251200F886040886057B00EE2CFCEB3DFDE516F3
:1025220024FAF8EF26FBE40836FE8C828D83E493CE
:102532008B828E83F00F80C875A700D0D092AFD067
:102542001622C016858116AF82D220D310AF01C3E6
:10255200C0D0EF60047F0180027F008FA77F00E57B
:102562001624F9F8C3EF9650388F06E51624FCF8C6
:1025720086040886057B00EE2CFCEB3DFD8C828DEB
:1025820083E493FEE51624FAF8EF26F582E4083692
:10259200F583E0FDEEB505028004C22080030F80C2
:1025A200BE75A700D0D092AFA220E433F582D01638
:1025B20022C016858116AF8275B100D310AF01C358
:1025C200C0D08FA7E51624FCF80886F7E51624FC90
:1025D200F886FBE51624FAF886FCE51624FBF88655
:1025E200F275F30575F40A75F50975F60600000033
:1025F200000075F70075A700D0D092AFD01622C0A8
:10260200168581160581E58260027401FFA816080D
:10261200A6077E00E51624F9F8C3EE965043E516A8
:1026220024FAF8EE26F582E40836F583E0FD8E04FE
:10263200E51624FCF886020886037F00EC2AFAEFEE
:102642003BFBC006C005746EC0E0C002C003A81602
:102652000886821225B3E58124FCF581D0060E801E
:10266200B31581D01622C016858116E582600274E8
:1026720001FFE4C0E074E6C0E0E51624FCF8E6C021
:10268200E008E6C0E08F821225B3E58124FCF581E3
:10269200D0162275B20875BC027E007F00C3EE948C
:1026A20020EF944E5011E5BC030354017009F5B1BB
:1026B2000EBE00E90F80E643BC0143B204227F0054
:1026C200BFC8005004000F80F722D310AF01C3C06F
:1026D200D043B20843BC0275B1001226C075BC03D8
:1026E20075B20C75B100D0D092AF22C0168581169A
:1026F200C082C083C0F0E51624FDF8E624EF403224
:102702007C00E51624FDF8C3EC965026EC2420FA52
:10271200E43411FBA81608EC26FDE40836FE088610
:10272200078D828E838FF0128C5E8A828B83F00CEF
:1027320080D0851681D01622C016858116C082C02F
:1027420083C0F0E51624FDF8E624BF40327C00E5A4
:102752001624FDF8C3EC965026EC2480FAE43411DA
:10276200FBA81608EC26FDE40836FE0886078D82D3
:102772008E838FF0128C5E8A828B83F00C80D085E0
:102782001681D016227F00BFFF005015E59930E276
:102792001075B100900028C00712245CD0070F808A
:1027A200E6227F00BFFF005015E59A30E21075B1B6
:1027B20000900028C00712245CD0070F80E6227523
:1027C200960075945F7595117591C043A9012275A4
:1027D200960053913B53A9FE22C016858116AD8205
:1027E200AE83AFF0C007C006C005122787D005D060
:1027F20006D007E51624FDF8E6C0E08D828E838FB1
:10280200F01226ED1581539CE0E51624FDF8E64210
:102812009C439904D01622C016858116AD82AE83E0
:10282200AFF0C007C006C0051227A4D005D006D05D
:1028320007E51624FDF8E6C0E08D828E838FF01244
:10284200273A1581539D80E51624FDF8E6429D4303
:102852009A04D016222222C024C0E0C0F0C082C056
:1028620083C007C006C005C004C003C002C001C0C7
:1028720000C0D075D000AF86AEA7D204C007C00694
:102882001205F5D006D0078EA78F86D0D0D000D003
:1028920001D002D003D004D005D006D007D083D017
:1028A20082D0F0D0E0D0240200B422E5827004434A
:1028B20091012202029253B2FB53BCFE53BCFD5360
:1028C200B2F722AF8243948553927AEF700475A9CE
:1028D200012275A900538FFE2200758E554387028F
:1028E20000000000000022AF825392FD5391FE903F
:1028F20003BBE060084391029003BBE4F0EF700970
:1029020075945F43A901C20122438F019001F41221
:10291200245C02024DAF82C0071228AD1228B8D043
:10292200078F82C0071228C575B1009003BBE4F07F
:102932001228DB1226CCD0078F820228E9C024C0DD
:10294200E0C0F0C082C083C007C006C005C004C09A
:1029520003C002C001C000C0D075D00012299B90F4
:1029620003BB7401F0D0D0D000D001D002D003D08C
:1029720004D005D006D007D083D082D0F0D0E0D0EA
:10298200240200B49003BBE0B401009220B3E4330C
:10299200FF9003BBE4F08F822275E8002212299B8C
:1029A20075BAF375B640D2A922C2A902299BAE829A
:1029B200AF83C2CA8F058DCB8ECA8DCD8ECCD2CAC3
:1029C20022C2CA75C80075C90090FCDF1229B0C2C4
:1029D200CFD2A8D2CA22E58270067E377FFF80045A
:1029E2007EDF7FFC8E828F830229B0C2A822D2A80A
:1029F20022C024C0E0C0F0C082C083C007C006C0AD
:102A020005C004C003C002C001C000C0D075D00020
:102A1200C2CF1223C3D0D0D000D001D002D003D075
:102A220004D005D006D007D083D082D0F0D0E0D039
:102A3200240200B432C016858116AE82AF837D00B7
:102A42007C00E51624FDF8C3EC96500EEC2EF582C0
:102A5200E43FF583E02DFD0C80E88D82D01622AF95
:102A620082C0077403C0E074BCC0E07403C0E0E439
:102A7200C0E074ECC0E07582001224EAE58124FB18
:102A8200F581D0079003BCE0FEBE5A119003BDE071
:102A9200FEBEA5099003BEE0B507028004C22080F5
:102AA20002D220A220E433F58222C016858116AE1E
:102AB20082AF83E51624FDF88682C007C006122A7B
:102AC20061E582D006D0077005F582022B4FC00760
:102AD200C006E51624FDF8E6C0E0C006C007740390
:102AE200C0E074ECC0E07582001224EAE58124FBA8
:102AF200F581E51624FDF886057C0074032DFD742E
:102B0200EC3CFC7401C0E074BCC0E07403C0E0C0E3
:102B120005C0047582001224EAE58124FBF581D008
:102B220006D0079003BCE0FDC005E51624FDF8E6DB
:102B3200C0E08E828F83122A37AF821581D005EDD5
:102B4200B50703D38001C39220E433F582D0162265
:102B5200C016858116AE82AF83E51624FDF8868203
:102B6200C007C006122A61E582D006D0076030C0D5
:102B720007C006E51624FDF8E6C0E0C006C00774EB
:102B820003C0E074ECC0E0758200122544AD82E51A
:102B92008124FBF581D006D007ED6003022C5BC0D7
:102BA20007C006E4C0E074ECC0E07582001226683B
:102BB200158115819003BC745AF09003BDF4F09016
:102BC20003BEE51624FDF8E6F07403C0E074BCC051
:102BD200E07403C0E0E4C0E074ECC0E0758200126F
:102BE2002601E58124FBF581D006D007C007C00687
:102BF200E51624FDF8E6C0E0C006C0077403C0E095
:102C020074ECC0E0758200122601E58124FBF58197
:102C1200D006D007E51624FDF8E6C0E08E828F8349
:102C2200122A37AF8215819003BCEFF0E51624FD1E
:102C3200F886077E0074032FFF74EC3EFE7401C019
:102C4200E074BCC0E07403C0E0C007C00675820037
:102C5200122601E58124FBF581D0162243B02D43D3
:102C62008887E5C075C0FF22E582FF24F05001226B
:102C7200EF2F902C7873801E801F8020802180226D
:102C82008023802480258026802780288029802A0E
:102C9200802B802C802DC2C022C2C122C2C222C27D
:102CA200C322C2C422C2C522C2C622C2C722C2884D
:102CB20022C28922C28A22C28F22C2B022C2B22278
:102CC200C2B322C2B522E582FF24F0500122EF2FC7
:102CD200902CD673801E801F80208021802280232A
:102CE200802480258026802780288029802A802BA6
:102CF200802C802DD2C022D2C122D2C222D2C322A3
:102D0200D2C422D2C522D2C622D2C722D28822D28D
:102D12008922D28A22D28F22D2B022D2B222D2B336
:102D220022D2B522E5F8C313FF530707E5885418EA
:102D320042074307E0C0071238BDD0078F822253F3
:102D420090C05398C053A0C022758004759000753E
:102D5200980075A00075B06D75888775C0FF75F80D
:102D62001075E10475E23F75E33F75E43F75E56F69
:102D720075E68775E7FF75D17075E9F875EA3F75F5
:102D8200EB3F75EC3F75ED6F75EE9F75EFFF75D9F3
:102D9200DF758C0575A500758C4575A600758C854B
:102DA20075BB00758CC5758D00758C0022022D4B8C
:102DB200122D4B758200122C6A7F007E00BE10001D
:102DC200501D75B1009001F4C007C00612245C12B8
:102DD2002D26E582D006D00720E0010F0E80DE7599
:102DE2008200C007122CC8D007BF100302249D2204
:102DF200758200227582100251D47582100251DB55
:102E0200900238E0F582025E5B900386E0B4010036
:102E12009220B3E433F582125E5102132212491753
:102E2200E582B401009220E433F58222121E43E5CA
:102E32008270069003857401F0900385E0F582129A
:102E42004925124917E582B401009220E433F58244
:102E520022122E0B1236F21237D7123BA112491749
:102E6200E582700353A9BF22900386E4F0900385A4
:102E720004F0028567900386E024FE5005900386E5
:102E8200E4F01285E6122E0B900385E0F5820249EA
:102E920025A2B4B392FE123702AE82AF839003BF73
:102EA200E0FCA3E0FDEEC39CFCEF9DFDC3EC940AA5
:102EB200ED94005001229003BFEEF0EFA3F0124A0E
:102EC200A4124917E582B40100B39220A2FFB39283
:102ED20021E433FFA2B4E433FEA220E433C0E0C015
:102EE200078E82123E2B15811581024DF090033A16
:102EF20075F000121C87121CFA021805900386E076
:102F0200600B900386E4F0122EEF122E0B128567EF
:102F1200021E9D9003C1E0F58222C016858116AE85
:102F220082AF839003C47401F0E51624FDF8E6C075
:102F3200E08E828F8312157415819003C4E4F0D061
:102F420016229003C2E0600F9003C2E4F0C0E0904A
:102F520000E5122F1C158122E58260089003C3E46C
:102F6200F0022F449003C1E060069003C37401F0A5
:102F720022C016E581F5162404F581AF82E51624F8
:102F8200FDF8E670030230D0900386E0B40100B38E
:102F92009220C007C024122F15AE82D024D007A2DF
:102FA20020E433B50631EF75F002A424C9FD7403A1
:102FB20035F0FE8F037C00743A2BFBE43CFC8D82DF
:102FC2008E83EBF0ECA3F07401C0E08B828C831251
:102FD2002F1C158102315F302018EF75F002A424F6
:102FE200F7F582749035F0F583E493FDA3E493FE44
:102FF2008016EF75F002A4240FF582749135F0F576
:1030020083E493FDA3E493FEE5162403F8A60508E2
:10301200A606EF75F002A424C9FB740335F0FC8BFD
:10302200828C83E5162403F8E6F008E6A3F0E516A1
:103032002403F88605088606BD0106BEF003ED806E
:1030420001E4FF7006BD025DBEF05A9003C7E0FACC
:1030520004F0EA702CC007121CD8AA82D007EA0337
:10306200035401B4010092209003C8E433F03020ED
:1030720010C0077401C0E09000E2122F1C1581D02D
:1030820007EF60047A2B80027A29A81608A60208A4
:1030920076007401C0E0A816088682088683122F83
:1030A2001C15818026E5162403F8E60846601C8D6F
:1030B2000274804EFE8B828C83EAF0EEA3F0E5165A
:1030C2002403F8868208868312022102315FEF759B
:1030D200F002A424C9FE740335F0FF8E828F83E0D0
:1030E200FCA3E0FD8E828F83E4F0A3F08C068D07B3
:1030F200BE0106BFF003048001E4FB7006BE02417C
:10310200BFF03EEB60047F2B80027F29E4FEC0E02B
:103112008F828E83122F1C15819003C7E0FFE0601F
:103122003CEF149003C7F0E070339003C8E0602DC9
:103132009003C8E4F0C0E09000E2122F1C158180D9
:103142001CED30E7089000001202218010EC4D6067
:103152000CE4C0E08C828D83122F1C1581851681B0
:10316200D01622C016858116AE82AF83E51624FDE5
:10317200F8E66027C007C00612371A124917E5821F
:10318200D006D0076015C007C006123E03E582D004
:1031920006D00760067582000234C88E048F05BC13
:1031A2002A47BD0044E51624FDF8E66023C007C0A7
:1031B20006C005C004122E02E582D004D005D00656
:1031C200D007600C9003E17401F07582000234C8EC
:1031D200E51624FDF8E670119003E1E0600B900320
:1031E200E1E4F07582000234C89003C4E060030297
:1031F2003368BCE534BD0031E51624FDF886039042
:1032020003C1EBF09003C3E4F0EB60099003C274D6
:1032120001F00232AE9003C2E060089003C2E4F013
:103222000232AE7582000234C8BC4720BD7E1DE565
:103232001624FDF886039003C1EBF0EB70089003AF
:10324200C3E4F0122F447582000234C8E51624FD4F
:10325200F8E660589003C3E06052C3EC9404ED9426
:1032620000404974A49CE49D40429003C3E4F09062
:1032720003C1E06037C007C006C005C004122E02B9
:10328200E582D004D005D006D00770209003C27426
:1032920001F0C007C006C005C004C0E09000E512FE
:1032A2002F1C1581D004D005D006D007E4BC35040C
:1032B200BD000104FB6078E51624FDF8E66070C0ED
:1032C20007C006C005C004C003122E02E582D00367
:1032D200D004D005D006D0076055C007C006C0058F
:1032E200C004C003122F15E582D003D004D005D04C
:1032F20006D007603A9003C57401F0121CD8E5822B
:10330200035401B4010092209003C6E433F030204C
:103312000C7401C0E09000E1122F1C15817401C0F1
:10332200E0900035122F1C15817582000234C8EB23
:103332006034E51624FDF8E6702C9003C5E06026A3
:103342009003C5E4F0C0E0900035122F1C15819067
:1033520003C6E0600BE4C0E09000E1122F1C15816F
:103362007582000234C8BC1950BD004DE51624FD1B
:10337200F8E6602CC007C006C005C004122E02E5A4
:1033820082D004D005D006D00760159003E2740104
:10339200F09003E1E06003122EFE7582000234C851
:1033A200E51624FDF8E670119003E2E0600B90034D
:1033B200E2E4F07582000234C8C007C006C005C04E
:1033C20004E51624FDF8E6C0E08E828F831287584A
:1033D200AB821581D004D005D006D007EB7005F57D
:1033E200820234C8C3EE9441EF947E50030234C586
:1033F200C374549E747E9F50030234C5EC24BFFBF9
:10340200240A83F582EB241883F583E4738D8D51AE
:10341200666666C53737373737373737373737371F
:103422007E34343434343434343434343434343410
:1034320034343434348E03EB24B8FBE51624FDF81F
:10344200E6C0E08B82122F7315817582008077E5CA
:103452001624FDF8E6C0E0758200124B2415817532
:103462008200806274BD2EFEE51624FDF8E6C0E0FF
:103472008E82124B241581758200804AE51624FD46
:10348200F88682126110758200803BE51624FDF8F1
:10349200E6602B900386E0FFE4BC4204BD7E01049B
:1034A200FE60027401FDEFB505028012EE60027447
:1034B20001900386F0122EEF122E0B121E9D7582C2
:1034C200008003758201D01622AE82AF83C007C08E
:1034D20006124917E582D006D00770078E828F83C5
:1034E2000202B78E828F830245B2AE82AF83C007DB
:1034F200C006124917E582D006D00770078E828F68
:10350200830202DD22AE82AF83C007C006124917D2
:10351200E582D006D00770078E828F830203038E66
:10352200828F8302465512491712481E124BB91256
:103532004917E5827003200104C2208002D220A232
:1035420020E433F582125227124917E582600122E4
:10355200C2207F00BF1000502CEF2417F582E43404
:1035620002F583E0FEEF24E3F582E43403F583E021
:10357200F45E6002D220EF24E3F582E43403F583A3
:10358200EEF00F80CF2001069003F3E4F0229003C7
:10359200F3E0701A9003F37401F0C02412236AE579
:1035A200828583F0D0249003F4F0E5F0A3F030207C
:1035B2002212236AAE82AF839003F4E0FCA3E0FD03
:1035C200EEC39CFEEF9DFFC3EE9408EF9400400310
:0435D200020370225E
:1090F70070006F009F02A00200000000B600CD00C4
:10910700B500E200EA00E90070006F0001F002F02C
:1091170023028A01B600CD00B500E200EA00E900AB
:1035D600C0E0C0F0C082C083C007C006C0D075D0AE
:1035E6000053DADF9003F6E0FEA3E0FF9003F674E3
:1035F600012EF0E43FA3F0E50904F509100402806A
:10360600099003FCE4F0A3F080239003FCE0FEA302
:10361600E0FFBEFF05BFFF0280139003FCE0FEA3A0
:10362600E0FF9003FC74012EF0E43FA3F09003F852
:10363600E02401FEA3E03400FF9003F8EEF0EFA3D0
:10364600F0C3EE94E9EF9403402A9003F8E4F0A364
:10365600F09003FAE0FEA3E0FFBEFF05BFFF028085
:10366600139003FAE0FEA3E0FF9003FA74012EF034
:10367600E43FA3F0E50F6012E50F14F50F700B2081
:10368600050853E1FBD28285091030B750E50A6080
:103696004CD310AF01C3C0D074FE250C4038E50BE7
:1036A6002443F582E43404F583E50AF0E50C04F5D9
:1036B6000CE50B04FF8F0BBF0303750B00E50B75C1
:1036C600F002A42427F582749135F0F583E493F58E
:1036D6000DA3E493F50E750A00D0D092AFD0D0D0EA
:1036E60006D007D083D082D0F0D0E03275DA0375E9
:1036F600DE0B75DDB875DAC343A92022D310AF01FE
:10370600C3C0D09003F6E0FEA3E0FFD0D092AF8E08
:10371600828F8322D310AF01C3C0D09003FAE4F0A6
:10372600A3F09003F8F0A3F09003FCF0A3F0D0D040
:1037360092AF22D310AF01C3C0D09003FCE0FEA32A
:10374600E0FFD0D092AF8E828F8322D310AF01C319
:10375600C0D09003FAE0FEA3E0FFD0D092AF8E82F5
:103766008F8322C0E0C082C083C007C0D075D0005E
:1037760010D802801B74E9250A4040E50A250DF59C
:1037860082E4350EF583E5AAF0E50A04F50A802BF6
:1037960010D9028026C3E5119512400CC205850991
:1037A6001053E1FBD2828013E51104F511E51124D3
:1037B60047F582E43404F583E0F5AAE5D854E060E1
:1037C6000353D81FD206D0D0D007D083D082D0E002
:1037D6003253A9BF75AD0075AE0075AF0075D80040
:1037E60075D85075ADFF75AEFB75AF0CC2D9C2D892
:1037F60043874043B54043B940C205AF091F1F8FF9
:1038060010750A00750B00750C00900446E4F075FF
:103816000DFE750E0343A9402253A9BF53D8BF22FC
:10382600C28243E104C28222123826750F02123781
:1038360002E5828583F0900467F0E5F0A3F022C0EC
:10384600E0C007E5826016FF0000000000000000EF
:103856000000000000000000000000DFEBD007D0F1
:10386600E022E509C39510FFBF0200B39220E433BE
:10387600F582227F00BF28005016C007123868E57F
:1038860082D007700BF5B17582641238450F80E55A
:1038960022AF82BF01028013BF0202800ABF030269
:1038A600800DBF090E800475823C2275821E22752A
:1038B60082162275820A2230B750E50A604CD31070
:1038C600AF01C3C0D074FE250C4038E50B2443F588
:1038D60082E43404F583E50AF0E50C04F50CE50B07
:1038E60004FF8F0BBF0303750B00E50B75F002A4F5
:1038F6002427F582749135F0F583E493F50DA3E45E
:1039060093F50E750A00D0D092AF2220B70122D3CC
:1039160010AF01C3C0D030B745E50A604174FE253B
:103926000C4038E50B2443F582E43404F583E50ABC
:10393600F0E50C04F50CE50B04FF8F0BBF030375D4
:103946000B00E50B75F002A42427F582749135F07F
:10395600F583E493F50DA3E493F50E750A00D0D034
:1039660092AF22C016858116AF827E557D008F04E8
:10397600EC14FBC3ED9B5013ED2447F582E43404AD
:10398600F583E0FBEEC39BFE0D80E3EC14FF33955D
:10399600E0FDEF2447F582ED3404F583EEF0E516FD
:1039A60024FDF8E66007C004123911D004D205C020
:1039B60004123826D004E51624FDF8E66003750ADD
:1039C600001C8C12751100900448E0F5821238979D
:1039D600123845900447E0F5AAD01622E5A923231C
:1039E6005401600D20050A30B707123868E5827069
:1039F60004C2208002D220A220E433F58222AF82C4
:103A0600C0077420C0E0E4C0E0C0E0900447F5F0D1
:103A1600128C03158115811581D007900447740116
:103A2600F0900448EFF022C016858116AF82C007D9
:103A36001239E2E582D0077004F58280288F82125F
:103A46003A04900449E51624FDF8E6F090044AE5A8
:103A56001624FCF8E6F07401C0E075820612396996
:103A66001581758201D01622C016858116AF827D1A
:103A7600007E00C007C006C005E51624FCF8E6C0B7
:103A8600E0E51624FDF8E6C0E08F82123A2DAC82FE
:103A960015811581D005D006D007EC7044E51624B3
:103AA600FAF88603088604C007C006C005C003C02E
:103AB6000490000A12895EAB82AC8315811581D011
:103AC60005D006D007C3ED9BEE9C400575820080AD
:103AD6001375B1007582641238450DBD00950E80D0
:103AE60092758201D01622AF82900469EFF0D20758
:103AF60022300725E5A930E62020051D123868E5A5
:103B0600826016C207900469E0F582123A04E4C0A6
:103B1600E07582061239691581227E007F00300524
:103B2600178E048F05C3EC9460ED94EA500A75B1C4
:103B3600000EBE00E90F80E622C016858116AF8210
:103B4600C007123B20123879758209123A04D00751
:103B5600900449EFF090044A740FF07F00BF0F0005
:103B660050248F06EE24042447FEE43404FDE516B3
:103B760024FCF8EF26F582E40836F583E4938E827A
:103B86008D83F00F80D77401C0E0758220123969E9
:103B9600158190002012246CD01622742DC0E0747A
:103BA60091C0E0758200123B3F15811581743CC0BF
:103BB600E07491C0E0758201123B3F1581158102C8
:103BC6003B20C20CC20D22C016858116AF82300C76
:103BD6000B900470E06005EF70028011D20C900427
:103BE60070EFF0E51624FDF8900471E6F0D0162289
:103BF600C20890046D7406F090047474FFF02230CD
:103C06000C311239E2E582602A900471E0C0E0903E
:103C16000470E0C0E0758201123A2D15811581C24B
:103C26000C123702E5828583F0900472F0E5F0A36A
:103C3600F0D20D22A20AE433F5822290046BE0F55D
:103C4600822290046AE0F58222A208E433F58222F9
:103C5600A20BE433FFC20B8F8222A209E433F58262
:103C66002290046CE0F58222C20A22900C03E0FE48
:103C7600A3E0FFC3EE94CBEF9402500475820022BA
:103C8600EE2435FEEF34FDFF7D007C00C006C00744
:103C9600C005C00490000AE4F5F0128CE8AC82ADD1
:103CA60083AEF0FFE58124FCF5817416C0E0E4C024
:103CB600E0C0E0C0E08C828D838EF0EF128AE6AC25
:103CC60082AD83E58124FCF5818C068D07C3EE94D5
:103CD60064EF9400922040047F6480028C078F82F8
:103CE60022123C71AF82900474E0FEBEFF0790047E
:103CF60074EFF0D20E200F03023D90900476E4F0AC
:103D0600900474E0FEC39F504EEFC39EFD90047571
:103D1600E02401F08D0475F00AEC8490914B93FC3D
:103D2600900475E0C39C4044900475E4F0900474DC
:103D3600EE04F0BD14004005900474EFF090047496
:103D4600E0FDBD640E3010047D6380027D64900446
:103D560074EDF0D20E8015900475E4F0EEC39FFE6C
:103D6600BE14004007900474EFF0D20E301001220A
:103D7600900474E0FEBE5F00500122EE249C5001C8
:103D8600229004747464F0D20E22900475E4F090CC
:103D96000474E0FEC3EF9E4016900476E4F0EFC391
:103DA6009EFDBD1E004041900474EFF0D20E22EE3F
:103DB600C39FFD900476E02401F08D0475F00AECB3
:103DC6008490914B93FC900476E0C39C401A900437
:103DD60076E4F0EE6006EE14900474F0BD1E00402A
:103DE60005900474EFF0D20E22900474E0FFBFFF3A
:103DF60007123C71AE8280028F068E8222A211E4E7
:103E060033F58222A20FE433F58222A210E433F5C1
:103E16008222A212E433F58222900C03E0FEA3E094
:103E26008E82F58322C016858116E582601790047E
:103E360077E0FFBFFF028006900477EF04F090045E
:103E460078E4F08015900477E4F0900478E0FFBF02
:103E5600FF028006900478EF04F0900477E0FFBF3D
:103E660003004005200F02D20F900478E0FFBF0345
:103E760000400F100F02800A90046DE4F090047465
:103E860014F0E51624FDF8E66017900479E0FFBF0C
:103E9600FF028006900479EF04F090047AE4F08043
:103EA60015900479E4F090047AE0FFBFFF028006E3
:103EB60090047AEF04F0900479E0FFBF140040020A
:103EC600D21090047AE0FFBFC8004002C210300F43
:103ED6000CC211C21290047CE4F0023F76E516246F
:103EE600FCF8E67003023F76900C03E0FEA3E0FFC9
:103EF600C3EE94E1EF9402400330111990047BE085
:103F06002401F0E0FDBDC800401090047BE4F0D22F
:103F160011D213800590047BE4F0C374909E740361
:103F26009F501990047DE02401F0E0FDBD6400403F
:103F36001090047DE4F0C211C212800590047DE465
:103F4600F020112CC3EE940DEF9403501E90047CC8
:103F5600E0FFBFFF02800690047CEF04F090047C33
:103F6600E0FFBF18004009D212800590047CE4F0FF
:103F7600D01622A213E433F58222C21322C016857C
:103F86008116AE82AF837D557C00E51624FDF8C30D
:103F9600EC965011EC2EF582E43FF583E0FBEDC381
:103FA6009BFD0C80E58D82D01622C016858116AF4A
:103FB60082A20AE433FEBF010A90046C7406F0C2C2
:103FC6000A801FBF0217E51624FDF8E660047D028D
:103FD60080027D0190046CEDF0C20A8005BF0302E9
:103FE600D20AA20AE433FFEEB50702800812371A96
:103FF600300A02D20BD01622AE82AF83A3A3A3A3AC
:10400600E090046AF08E828F83A3A3A3A3A3E0901B
:10401600046BF074062EF582E43FF583E0FD7C0028
:1040260074072EF582E43FF583E0FA7B00900C03DB
:10403600EB4DF0EA4CA3F0D20990046EE070012239
:104046008E828F83A3A3A3E0F582121E3790046E9F
:10405600E0FFBF020790046FE0FF80027F0090043C
:104066006AE0B5070690046BE07034300D23C00794
:10407600123702AD82AE83D007900472E0FBA3E054
:10408600FCEDC39BFDEE9CFEC3ED9458EE940240FE
:1040960018C20DC007758200123BCD1581800A201B
:1040A6000805C20A12371AD20830081290046BE0CB
:1040B600FF90046AE0C0E08F82123FB01581900441
:1040C6006DE02401F0E0FFBF0600400890046DE4B7
:1040D600F0023CE722C016858116AE82AF83E0FD72
:1040E600BD0261E51624FDF8B60A0050030241BF81
:1040F6008E828F83A3E0FCBC060280030241BF745C
:10410600022EFBE43FFC8B828C83E060030241BFFE
:10411600C007C0067409C0E08E828F83123F83AC4D
:10412600821581D006D00774092EF582E43FF58307
:10413600E0FBECB5030280030241BF8E828F83123F
:104146003FFE8075BD0324123702E5828583F09019
:10415600047EF0E5F0A3F090046D7406F09004740C
:1041660074FFF07582F0123AED804EBD084BE516ED
:1041760024FDF8B616004041C007C0067415C0E01D
:104186008E828F83123F83AD821581D006D007744D
:10419600152EF582E43FF583E0FCEDB5041B8E8217
:1041A6008F83A3A3E0FF53077FBF0802800B7582AE
:1041B600F1123AED12371AC213D01622AF827E00E0
:1041C600BE06005015EE242DF582E43405F583E095
:1041D600B50704758201220E80E675820022AF8241
:1041E6007E00BE05005015EE2433F582E43405F555
:1041F60083E0B50704758201220E80E67E00BE06C6
:10420600005015EE2438F582E43405F583E0B50751
:1042160004758201220E80E6758200227F007E00F0
:10422600BE0500503EEE2433FCE43405FD8C828D41
:1042360083E0FB8C828D83E4F0EB60248B82C007E5
:10424600C006C0031241C2E582D003D006D0076083
:104256000FEF2433FCE43405FD0F8C828D83EBF0E5
:104266000E80BD7E00BE06005032EE2438FCE434DB
:1042760005FD8C828D83E0FB601F8B82C007C00624
:10428600C005C0041241C2E582D004D005D006D0D4
:104296000770068C828D83E4F00E80C97E00BE0610
:1042A60000505DEE242DF582E43405F583E0FD60D3
:1042B6004C8D82C007C006C0051241E4E582D005D8
:1042C600D006D0077037BF05005011EF2433FBE44A
:1042D6003405FC0F8B828C83EDF080217C00BC06BC
:1042E60000501AEC2438FAE43405FB8A828B83E00A
:1042F60070088A828B83EDF080030C80E10E809E2D
:1043060022AF8290052AE0FEBE06004004758200B8
:1043160022900528E075F01CA4AEF02480FDEE3452
:1043260004FE8D028E037C00C007C006C005741C07
:10433600C0E0E4C0E0C0E08A828B838CF0128C037C
:10434600158115811581D005D006D0078D828E8303
:10435600EFF0BF020280030243EAC006C005124224
:1043660022D005D00674012DFCE43EFF90052BE01B
:104376008C828F83F07F00BF0500501D8F040C0CCC
:10438600EC2DFCE43EFBEF2433F582E43405F583A3
:10439600E08C828B83F00F80DE7F00BF06005076B4
:1043A600EF2438F582E43405F583E0FC6033BC8005
:1043B60000502EC007ECC423541F24082DFBE43EF6
:1043C600FA8B828A83E0FF74075CF5F005F07401CE
:1043D600800225E0D5F0FB42078B828A83EFF0D07E
:1043E600070F80B774012DFCE43EFF90053EE08C7C
:1043F600828F83F074022DFCE43EFF90053EE0A31D
:10440600E08C828F83F074032DFDE43EFE90054020
:10441600E08D828E83F0900528E0FF7E000FBF00BE
:10442600010E7406C0E0E4C0E08F828E83128F2BEB
:10443600AE8215811581900528EEF090052AE024BC
:1044460001F07582012230140D758202124307E5D0
:10445600826012C2142230150C758203124307E5DE
:10446600826002C2152290052BE06004758200224C
:104476007F00BF06005016EF242DFDE43405FE8DA7
:10448600828E83E06004758200220F80E5758201CA
:10449600223016033014012220171212446CE582D2
:1044A60070012290052D7401F0D21780297408C07E
:1044B600E0E4C0E0C0E090052BF5F0128C03158116
:1044C60015811581C217900541E02401F0E0FFBF78
:1044D60003004002C216D21422900542E0FFE060BB
:1044E6000AEF14900542F0E06001221239E2E582FB
:1044F6007001229005427401F090052AE0700612C0
:10450600449712444C90052AE0700122900529E058
:1045160075F01CA4AFF02480FEEF3404FF8E828F6A
:1045260083E0FDBD02047D1E80027D0D900447746C
:1045360001F07C008D031B1BC3EC9B50218C030BED
:10454600EB3395E0FAEB2447FBEA3404FAEC2EF55C
:1045560082E43FF583E08B828A83F00C80D6740177
:10456600C0E08D821239691581850913900529E00D
:10457600FF7E000FBF00010E7406C0E0E4C0E08FAE
:10458600828E83128F2BAE8215811581900529EEBE
:10459600F090052AE014F090046EE0FFBF0206904A
:1045A60005427404F02212444C0244DFC016858191
:1045B60016C082C083A816088682088683E0FD900E
:1045C600052BE0F45205EDB40100B39220A81608BD
:1045D600740226FCE40836FD7B00BB060050302042
:1045E600202DEB2CF582E43DF583E0FA601ED22007
:1045F6007F00BF06005015EF242DF582E43405F543
:1046060083E0B50204C22080030F80E60B80CBA8AE
:10461600160886050886067F00C0247408C0E0E4F4
:10462600C0E0C005C006C00790052BF5F0128B70E0
:10463600E58124FBF581D024302009D216C21790DB
:104646000541E4F0D2141245AC851681D01622AE8F
:1046560082AF83E0FDBD02148E828F83A3E0FBA3AD
:10466600E0FC90053EEBF0ECA3F08043BD013F8EED
:10467600828F83A3E0FEA3E0FF8E048F05C3EC9434
:1046860081ED94009220401DC374839CE49D92208A
:104696004013EE247FF5F005F07401800225E0D585
:1046A600F0FBFF80027F00900540EFF0800122D2F0
:1046B600150245ACE582900542F02290046EE0FFBB
:1046C600BF02047F0980027F037D007E008D038E7A
:1046D60004C3EB94E8EC9403506190052AE070065D
:1046E600201403301555C007C006C00512444CD02F
:1046F60005D006D00790052AE06030C007C006C086
:10470600051239E2E582D005D006D007601DE5091D
:10471600C39513C39F4014900542E4F0C007C0063A
:10472600C0051244DFD005D006D00775B1007582EA
:10473600641238450DBD00950E80922290052AE43C
:10474600F0900529F0900528F07408C0E0E4C0E078
:10475600C0E090052BF5F0128C03158115811581AB
:104766007405C0E0E4C0E0C0E0900533F5F0128CBB
:10477600031581158115817406C0E0E4C0E0C0E030
:10478600900538F5F0128C03158115811581900579
:104796003EE4F0A3F0900540F0C216C217D214D240
:1047A6001522123702AE82AF8390047EE0FCA3E0AE
:1047B600FDEEC39CFEEF9DFFC3EE94C8EF94005040
:1047C6000122123702E5828583F090047EF0E5F03F
:1047D600A3F0E4C0E0C0E0758206123A2D158115FB
:1047E600811006028006900543E4F022900543E01E
:1047F6002401F0E0FFBF0300401A900543E4F0D324
:1048060010AF01C3C0D0C20585091053E1FBD282A7
:10481600D0D092AF22023911AF8290046EEFF0C071
:1048260007123911D007E50C606C900446E0FE24AF
:1048360043F582E43404F583E0FDEE75F002A4242A
:1048460027F582749135F0F583E493FBA3E493FC9A
:10485600EF6013C007C006C0058B828C831240DB55
:104866001581D006D007D310AF01C3C0D0E50C1414
:10487600F50CD0D092AF8E047D000CBC00010DBCAF
:104886000307BD00047C0080060EEEFC3395E09025
:104896000446ECF08090EF700122123AF7123C05C4
:1048A600300E221239E2E582601B900474E0FFBFED
:1048B600FF028011C20EE4C0E0C00775820D123AF5
:1048C6002D15811581123702AE82AF83900467E001
:1048D600FCA3E0FDEEC39CFEEF9DFFC3EE9402EF4A
:1048E6009400401E123702E5828583F0900467F03B
:1048F600E5F0A3F01245AC1247A820050553E1FBED
:10490600D28222E58290046FF022E58290046EF056
:01491600227E
:10912700FE0315042C0441554C4120463635204298
:1091370054352E302041554C412046363520425477
:10914700332E3020140A0502020202020202020232
:02A0C000A603F5
:10491700900544E0F58222900545E0F58222E58284
:10492700FFC4540FFE530603900544EEF0EE24FD3A
:104937005005900544E4F0530703900545EFF0EF69
:1049470070069005457401F0900545E0F58202492F
:1049570009900544E0C454F0FF900545E0420790F4
:104967000385EFF0021E9D53A9FE53913F90020D60
:10497700E4F022E59154C0600953913F900014126E
:10498700246C02024D1247421246C19000060224CF
:104997006CC016858116AF82E51624FDF8E6C0E0E7
:1049A7008F82123BCD1581123BF6D01622123BC8DF
:1049B700124B21123C6E12498C7414C0E0E4C0E023
:1049C700C0E0C0E075820E123A6EE58124FCF581E5
:1049D70090000612246C7414C0E0E4C0E0C0E0C08C
:1049E700E075820B123A6EE58124FCF58190000692
:1049F70012246C123B20900544E4F07582001249A2
:104A07001053A9BF12497A90008012246C1249589A
:104A170012371A023F80AF82900544E0700DC0073D
:104A270012474290000D12246CD007900544E0B560
:104A3700070122900544EFF0E4BF020104FE601570
:104A4700900545E0FDBD01004005ED24FC500690B2
:104A570005457401F0900545E0F582C007C00612D0
:104A67004909D006D0078F82C006124910123BC8E9
:104A7700124B2143A94012496E12498CD006EE60B1
:104A870007900545E0FF80027F00C007758200128E
:104A97004998158112495812371A023F802085120A
:104AA700900547E02401F0900548E4F0900546F0B2
:104AB7008025208412900548E02401F0900547E402
:104AC700F0900546F08010900546E02401F090052F
:104AD70047E4F0900548F0900546E0FFBF0A004024
:104AE7000E900546E4F0900544E0602D0249B4902D
:104AF7000547E0FFBF0A00400B900547E4F07582C9
:104B070001024A1D900548E0FFBF0A00400B9005CF
:104B170048E4F0758202024A1D22C21822C0168597
:104B27008116E582FF7028E51624FDF8E6601C90E3
:104B37000544E0FEBE0116123702E5828583F09038
:104B47000549F0E5F0A3F0D2188064C2188060E54B
:104B57001624FDF8E6603D900544E0FEBE02509045
:104B67000545E0FEEFB506028016900545EFF08F8C
:104B77008212490943A94012496E12474212495805
:104B8700123702E5828583F0900549F0E5F0A3F03E
:104B9700D218801B900544E0FFBF021130180E9019
:104BA7000545E0C0E07582001249981581C218D00A
:104BB7001622900544E07003C2182230181F1237DE
:104BC70002AE82AF83900549E0FCA3E0FDEEC39CF3
:104BD700FEEF9DFFC3EE94B8EF940B500122C2186D
:104BE700123C6E12498C900544E0FFBF020F9005FE
:104BF70045E0C0E0758201124998158122BF010B7B
:104C0700E4C0E0758201124998158122E58224FFEC
:104C1700922053D1F043D90F53E6E743EE1875C0FE
:104C27000053887853B09253F8EF53801F75E7FF0E
:104C370043E68743E56D43D11043E1E030201B5342
:104C4700E9FC43E1035380FC53E90F43E1F0538050
:104C57000F53D97F43D18053F87FD2B1302002C29E
:104C6700FE2275B100C2AF75B60075E80075BA00CF
:104C770053A8FD43B20843BC0290002812245C7578
:104C8700B10075BC0375B20C5392FD5391FE22001F
:104C9700758E5543870200000000000022758210C0
:104CA7001251D412498C90008012246C90000D127E
:104CB700246C123C3AE582701A7414C0E0E4C0E038
:104CC700C0E004C0E075820B123A6EE58124FCF562
:104CD7008180377414C0E0E4C0E07407C0E004C00A
:104CE700E075820C123A6EE58124FCF58190000D87
:104CF70012246C7414C0E0E4C0E0C0E0C0E0758228
:104D07000B123A6EE58124FCF58190000D12246C9C
:104D1700123B2012381FC2AF1223EC53913F75820A
:104D270001124C1375E80075BAF375B64043A80233
:104D3700D2AF43910153B2FB53BCFE53BCFD53B2F8
:104D4700F743948553927A75A90053913B538FFE8D
:104D5700122986124C96124C69122986E582600345
:104D6700439102438F019003B612245C75B1001280
:104D77002D4BD2AF1223EF1236F21237D712382E3D
:104D87007582081246BA90000D12246C12371A1257
:104D97003F8002520D7582101251D4C2AF1223EC1C
:104DA700758200124C1375E80075BAF375B6404367
:104DB700A802D2AF43910153B2FB53BCFE53BCFDD3
:104DC70043948553927A75A901124C96124C691235
:104DD7002D4BD2AF1223EF1236F21237D753A9BF9A
:104DE70012497A12371A02520D123751AE82AF8327
:104DF700900544E0701B120390E582701312373957
:104E0700AC82AD83C3EC9411ED94274003024D9C13
:104E170022C007C006123F79E582D006D00760039B
:104E2700024CA4C007C006123C41AD82D006D00791
:104E3700BD03067C3C7D008025C007C006123C6789
:104E4700AB827A00C003C00290000A12895EAA8270
:104E5700AB8315811581D006D0078A048B05EC4DED
:104E6700600F0CBC00010DC3EE9CEF9D4003024C8C
:104E7700A422C016858116E58275F003A4FFE51606
:104E870024FDF8E62F90915793FF7E008F828E8343
:104E9700D0162290FF807401F090FF81F090FF827E
:104EA700F090FF83F090FF84F090FF85F090FF86ED
:104EB700F090FF87F090FF88F090FF89F090FF8ACD
:104EC700F090FF8BF090FF8CF090FF8DF090FF8EAD
:104ED700F090FF8FF090FF90F090FF91F0122D412E
:104EE70075C0FF43888743B06D43F8102290FF8158
:104EF7007408F090FF82F090FF83F090FF84F090A9
:104F0700FF85F090FF9C03F090FF9874B0F090FF3E
:104F1700B8E4F090FFA074C3F090FFE8E4F090FFCE
:104F2700D074C3F090FFB9E4F090FFA174C4F0907F
:104F3700FFE9E4F090FFD174C4F090FFBAE4F09079
:104F4700FFA274C5F090FFEAE4F090FFD274C5F0B9
:104F570090FFBBE4F090FFA374C0F090FFEBE4F088
:104F670090FFD374C0F090FFBCE4F090FFA474C12D
:104F7700F090FFECE4F090FFD474C1F090FFBDE433
:104F8700F090FFA574C2F090FFEDE4F090FFD574A8
:104F9700C2F090FF877408F090FF88F090FF89F0C7
:104FA70090FF8AF090FF8BF090FF9D03F090FF99A0
:104FB70074B0F090FFBEE4F090FFA674BAF090FFD3
:104FC700EEE4F090FFD674BAF090FFBFE4F090FFE4
:104FD700A774BBF090FFEFE4F090FFD774BBF0909D
:104FE700FFC0E4F090FFA874BCF090FFF0E4F090ED
:104FF700FFD874BCF090FFC1E4F090FFA974BDF036
:1050070090FFF1E4F090FFD974BDF090FFC2E4F097
:1050170090FFAA74BEF090FFF2E4F090FFDA74BE3E
:10502700F090FFC3E4F090FFAB74BFF090FFF3E4A0
:10503700F090FFDB74BFF090FF8D7408F090FF8E47
:10504700F090FF8FF090FF90F090FF91F090FF9E0F
:1050570003F090FF9A74B0F090FFC4E4F090FFACB7
:1050670074B4F090FFF4E4F090FFDC74B4F090FFB8
:10507700C5E4F090FFAD74B5F090FFF5E4F090FF54
:10508700DD74B5F090FFC6E4F090FFAE74B6F09013
:10509700FFF6E4F090FFDE74B6F090FFC7E4F090FF
:1050A700FFAF74B7F090FFF7E4F090FFDF74B7F04D
:1050B70090FFC8E4F090FFB074B8F090FFF8E4F008
:1050C70090FFE074B8F090FFC9E4F090FFB174B9B5
:1050D700F090FFF9E4F090FFE174B9F090FF80746D
:1050E70089F090FF86F090FF8CF0227515017514FA
:1050F700007F00BF100040030251C2EF75F024A4E7
:10510700244BFD740535F0FE7C00BC12005024ECE6
:105117002C2DF582E43EF583E4F08C03EB2BFB0B9F
:10512700EB2DFBE43EFAEC909157938B828A83F048
:105137000C80D7EF248BF582E43407F583E4F0EF96
:1051470075F003A4249BFD740735F0FE8D828E83D2
:10515700E4F08D828E83A3F08D828E83A3A3F0EF7C
:1051670075F006A424FEFD740835F0FEEF75F01205
:10517700A424CBFB740735F0FC7A00BA0600502B49
:10518700EA2DF582E43EF58374FFF0EA75F003A497
:105197002BF8E43CF988828983E4F088828983A329
:1051A700F088828983A3A3F00A80D0EF24EBF582ED
:1051B700E43408F583E4F00F0250FA90095EE4F056
:1051C70090095FF0900960F02285158222E58242FE
:1051D70015024E9AE582F4521522D310AF01C3C0CF
:1051E700D0124EF4D0D092AF7582010251DB758296
:1051F700020251D47582020251DB7582040251D436
:105207007582040251DBD310AF01C3C0D0124EF434
:10521700D0D092AF7582100251DB7582200251D433
:10522700AF82E5155408B40100B392208FF0E43340
:10523700B5F00122EF60067582080251D475820825
:105247000251DBAE82AF83E090FFF5F08E828F8351
:10525700A3E090FFDDF08E828F83A3A3E090FFF49D
:10526700F08E828F83A3A3A3E090FFDCF08E828F62
:1052770083A3A3A3A3E090FFF6F08E828F83A3A35B
:10528700A3A3A3E090FFDEF074062EF582E43FF5BA
:1052970083E090FFF8F074072EF582E43FF583E092
:1052A70090FFE0F074082EF582E43FF583E090FF6D
:1052B700F7F074092EF582E43FF583E090FFDFF005
:1052C700740A2EF582E43FF583E090FFF9F0740B42
:1052D7002EF582E43FF583E090FFE1F0740C2EF5A4
:1052E70082E43FF583E090FFEFF0740D2EF582E442
:1052F7003FF583E090FFD7F0740E2EF582E43FF57B
:1053070083E090FFEEF0740F2EF582E43FF583E023
:1053170090FFD6F074102EF582E43FF583E090FFFE
:10532700F0F074112EF582E43FF583E090FFD8F09A
:1053370074122EF582E43FF583E090FFF2F07413C8
:105347002EF582E43FF583E090FFDAF074142EF532
:1053570082E43FF583E090FFF1F074152EF582E4C7
:105367003FF583E090FFD9F074162EF582E43FF500
:1053770083E090FFF3F074172EF582E43FF583E0A6
:1053870090FFDBF074182EF582E43FF583E090FF81
:10539700ECF074192EF582E43FF583E090FFD4F02A
:1053A700741A2EF582E43FF583E090FFEBF0741B4F
:1053B7002EF582E43FF583E090FFD3F0741C2EF5C1
:1053C70082E43FF583E090FFEDF0741D2EF582E453
:1053D7003FF583E090FFD5F0741E2EF582E43FF58C
:1053E70083E090FFE9F0741F2EF582E43FF583E038
:1053F70090FFD1F074202EF582E43FF583E090FF13
:10540700E8F074212EF582E43FF583E090FFD0F0B9
:1054170074222EF582E43FF583E090FFEAF07423CF
:105427002EF582E43FF583E090FFD2F022E582FF7C
:1054370024F0500122EF2F90544273801E801F806A
:105447002080218022802380248025802680278039
:10545700288029802A802B802C802DC2C022C2C19F
:1054670022C2C222C2C322C2C422C2C522C2C622CB
:10547700C2C722C28822C28922C28A22C28F22C2FE
:10548700B022C2B222C2B322C2B522C0168581168B
:105497001238BDC2CF051474EC25145003751400DF
:1054A700E515701674F025144010E514248BFEE4FE
:1054B7003407FF8E828F83E0700EE514B4010092EB
:1054C70020E433F58202554DE51475F024A4244BEE
:1054D700FE740535F0FF8E828F8312524A75C0FF26
:1054E70043888743B06D43F8108514821254349073
:1054F700FF807489F090FF817408F090FF82F0902C
:10550700FF83F090FF84F090FF85F090FF86748909
:10551700F090FF877408F090FF88F090FF89F09073
:10552700FF8AF090FF8BF090FF8C7489F090FF8DCD
:105537007408F090FF8EF090FF8FF090FF90F0903E
:10554700FF91F0758200D0162212236AAE82AF83D4
:10555700C007C006123702AC82AD83D006D00790D1
:105567000961E0FAA3E0FBEEB50206EFB50302809E
:105577001B900961EEF0EFA3F0900963ECF0EDA347
:10558700F0E51530E6297582400251DBE51520E686
:105597001E900963E0FEA3E0FFECC39EFCED9FFDB8
:1055A700C3EC9405ED940040067582400251D42265
:1055B700C016858116E58275F024A4244BFE740578
:1055C70035F0FFE51624FDF8E6FD25E02EF582E42B
:1055D7003FF583E0FB7C00ED2DFD0DED2EF582E41C
:1055E7003FF583E07E004204EE42038C828B83D03A
:1055F7001622C016858116C082E5812405F581A88B
:105607001608B610005014E51624FDF8B60600502B
:105617000AE51624FCF8B60300400302578EE51688
:1056270024FDF8E675F003A4FEE51624FCF8E62E43
:10563700FE90915793FC7D00E51624FAF8C3E69C8B
:1056470008E69D500AE51624FAF8A60408A605E51B
:105657001624FAF88602088603C3E49A74049B505A
:105667000AE51624FAF8760008760474075EF5F062
:1056770005F0A81608087401800225E0D5F0FBF6AE
:10568700A81608E675F003A4249BFA740735F0FB07
:10569700EEC423541FFFE5162403F8EF2AF6E43B74
:1056A70008F6E51624FAF8E6B5040708E6B5050294
:1056B7008021E5162403F88682088683E0FDA81674
:1056C7000808E64205E5162403F88682088683ED76
:1056D700F08020E5162403F88682088683E0FDA87B
:1056E700160808E6F45205E5162403F886820886AC
:1056F70083EDF08A828B8374012AFCE43BFDE0FF93
:105707008C828D83E042078A828B83A3A3E04207C2
:10571700EFB40100B39220E5162405F8A220E43384
:10572700F6E5162406F8A2A8E433F6C2A8A81608D8
:10573700E675F024A4244BFB740535F0FCEE2E2B04
:10574700FAE43CFDE51624FAF80886078A828D8379
:10575700EFF0EE2EFE0EEE2BFBE43CFCE51624FAF2
:10576700F886078B828C83EFF0A81608E6248BF562
:1057770082E43407F583E5162405F8E6F0E51624F8
:1057870006F8E624FF92A8851681D016227F00BF6F
:10579700100050377E00BE0600502D7D00BD03006F
:1057A7005023C007C006C005E4C0E0C0E0C005C084
:1057B700068F821255F9E58124FCF581D005D006C4
:1057C700D0070D80D80E80CE0F80C422C22090094A
:1057D70065E02401F0E0FFBF10004005900965E493
:1057E700F07F00BF12004003025875900965E0FE84
:1057F700C007C024C0078E821255B7AD82AE83158D
:1058070081D024D007EF90915793FC7B00C3ED9C88
:10581700EE9B4007E49D74049E5041D2208F068E74
:105827000575F003ED84ADF075F003EE84FE900985
:1058370065E0FCC007C024E4C0E0C0E0C005C006C6
:105847008C821255F9E58124FCF581D024900965F5
:10585700E0F582C02412587CD024D007BF090BC0C2
:1058670007C02412481BD024D0070F0257EAA220F2
:10587700E433F58222E58224EBF582E43408F583EC
:105887007401F090095FF0227F00BF10005010EF05
:1058970024EBF582E43408F5837401F00F80EB9074
:1058A700095F7401F022C016858116AF82BF100010
:1058B7005043E51624FDF8B606005039EF75F0069B
:1058C700A424FEFD740835F0FEE51624FDF8E62D48
:1058D700FDE43EFE8D828E83E0FCE51624FCF8E6AF
:1058E700B5040280108D828E83E51624FCF8E6F05D
:1058F7008F8212587CD01622AF82900960E0B507DC
:105907000122900960EFF002588FC016E581F51665
:10591700240FF581AF82E51624FDF8E6FE75F00346
:10592700A4FDE5162409F8A605EF75F006A424FEE4
:10593700FA740835F0FBEE2AF582E43BF583E0FCC8
:10594700EF75F024A4244BFA740535F0FBE5162413
:1059570009F8E625E0FEE516240AF8EE2AF6E43B08
:1059670008F6EF75F012A424CBFA740735F0FFE5BB
:1059770016240CF8ED2AF6E43F08F6A2A8E433FD56
:10598700BCFF09900960E07003025AA8BCFF047AC3
:105997000080028C028A07EF30E0067A007C0480E0
